{
  "_format": "hh-sol-artifact-1",
  "contractName": "RandomIpfsNft",
  "sourceName": "contracts/RandomIpfs.sol",
  "abi": [
    {
      "inputs": [
        {
          "internalType": "address",
          "name": "vrfCoordinatorV2",
          "type": "address"
        },
        {
          "internalType": "uint64",
          "name": "subscriptionId",
          "type": "uint64"
        },
        {
          "internalType": "bytes32",
          "name": "gasLane",
          "type": "bytes32"
        },
        {
          "internalType": "uint256",
          "name": "mintFee",
          "type": "uint256"
        },
        {
          "internalType": "uint32",
          "name": "callbackGasLimit",
          "type": "uint32"
        },
        {
          "internalType": "string[3]",
          "name": "dogTokenUris",
          "type": "string[3]"
        }
      ],
      "stateMutability": "nonpayable",
      "type": "constructor"
    },
    {
      "inputs": [
        {
          "internalType": "address",
          "name": "have",
          "type": "address"
        },
        {
          "internalType": "address",
          "name": "want",
          "type": "address"
        }
      ],
      "name": "OnlyCoordinatorCanFulfill",
      "type": "error"
    },
    {
      "inputs": [],
      "name": "RandomIpfsNft__AlreadyInitialized",
      "type": "error"
    },
    {
      "inputs": [],
      "name": "RandomIpfsNft__NeedMoreETHSent",
      "type": "error"
    },
    {
      "inputs": [],
      "name": "RandomIpfsNft__RangeOutOfBounds",
      "type": "error"
    },
    {
      "inputs": [],
      "name": "RandomIpfsNft__TransferFailed",
      "type": "error"
    },
    {
      "anonymous": false,
      "inputs": [
        {
          "indexed": true,
          "internalType": "address",
          "name": "owner",
          "type": "address"
        },
        {
          "indexed": true,
          "internalType": "address",
          "name": "approved",
          "type": "address"
        },
        {
          "indexed": true,
          "internalType": "uint256",
          "name": "tokenId",
          "type": "uint256"
        }
      ],
      "name": "Approval",
      "type": "event"
    },
    {
      "anonymous": false,
      "inputs": [
        {
          "indexed": true,
          "internalType": "address",
          "name": "owner",
          "type": "address"
        },
        {
          "indexed": true,
          "internalType": "address",
          "name": "operator",
          "type": "address"
        },
        {
          "indexed": false,
          "internalType": "bool",
          "name": "approved",
          "type": "bool"
        }
      ],
      "name": "ApprovalForAll",
      "type": "event"
    },
    {
      "anonymous": false,
      "inputs": [
        {
          "indexed": false,
          "internalType": "uint256",
          "name": "_fromTokenId",
          "type": "uint256"
        },
        {
          "indexed": false,
          "internalType": "uint256",
          "name": "_toTokenId",
          "type": "uint256"
        }
      ],
      "name": "BatchMetadataUpdate",
      "type": "event"
    },
    {
      "anonymous": false,
      "inputs": [
        {
          "indexed": false,
          "internalType": "uint256",
          "name": "_tokenId",
          "type": "uint256"
        }
      ],
      "name": "MetadataUpdate",
      "type": "event"
    },
    {
      "anonymous": false,
      "inputs": [
        {
          "indexed": true,
          "internalType": "uint256",
          "name": "tokenId",
          "type": "uint256"
        },
        {
          "indexed": true,
          "internalType": "enum RandomIpfsNft.Breed",
          "name": "breed",
          "type": "uint8"
        },
        {
          "indexed": true,
          "internalType": "address",
          "name": "minter",
          "type": "address"
        }
      ],
      "name": "NftMinted",
      "type": "event"
    },
    {
      "anonymous": false,
      "inputs": [
        {
          "indexed": true,
          "internalType": "uint256",
          "name": "requestId",
          "type": "uint256"
        },
        {
          "indexed": true,
          "internalType": "address",
          "name": "requester",
          "type": "address"
        }
      ],
      "name": "NftRequested",
      "type": "event"
    },
    {
      "anonymous": false,
      "inputs": [
        {
          "indexed": true,
          "internalType": "address",
          "name": "previousOwner",
          "type": "address"
        },
        {
          "indexed": true,
          "internalType": "address",
          "name": "newOwner",
          "type": "address"
        }
      ],
      "name": "OwnershipTransferred",
      "type": "event"
    },
    {
      "anonymous": false,
      "inputs": [
        {
          "indexed": true,
          "internalType": "address",
          "name": "from",
          "type": "address"
        },
        {
          "indexed": true,
          "internalType": "address",
          "name": "to",
          "type": "address"
        },
        {
          "indexed": true,
          "internalType": "uint256",
          "name": "tokenId",
          "type": "uint256"
        }
      ],
      "name": "Transfer",
      "type": "event"
    },
    {
      "inputs": [
        {
          "internalType": "address",
          "name": "to",
          "type": "address"
        },
        {
          "internalType": "uint256",
          "name": "tokenId",
          "type": "uint256"
        }
      ],
      "name": "approve",
      "outputs": [],
      "stateMutability": "nonpayable",
      "type": "function"
    },
    {
      "inputs": [
        {
          "internalType": "address",
          "name": "owner",
          "type": "address"
        }
      ],
      "name": "balanceOf",
      "outputs": [
        {
          "internalType": "uint256",
          "name": "",
          "type": "uint256"
        }
      ],
      "stateMutability": "view",
      "type": "function"
    },
    {
      "inputs": [
        {
          "internalType": "uint256",
          "name": "tokenId",
          "type": "uint256"
        }
      ],
      "name": "getApproved",
      "outputs": [
        {
          "internalType": "address",
          "name": "",
          "type": "address"
        }
      ],
      "stateMutability": "view",
      "type": "function"
    },
    {
      "inputs": [
        {
          "internalType": "uint256",
          "name": "moddedRng",
          "type": "uint256"
        }
      ],
      "name": "getBreedFromModdedRng",
      "outputs": [
        {
          "internalType": "enum RandomIpfsNft.Breed",
          "name": "",
          "type": "uint8"
        }
      ],
      "stateMutability": "pure",
      "type": "function"
    },
    {
      "inputs": [],
      "name": "getChanceArray",
      "outputs": [
        {
          "internalType": "uint256[3]",
          "name": "",
          "type": "uint256[3]"
        }
      ],
      "stateMutability": "pure",
      "type": "function"
    },
    {
      "inputs": [
        {
          "internalType": "uint256",
          "name": "index",
          "type": "uint256"
        }
      ],
      "name": "getDogTokenUris",
      "outputs": [
        {
          "internalType": "string",
          "name": "",
          "type": "string"
        }
      ],
      "stateMutability": "view",
      "type": "function"
    },
    {
      "inputs": [],
      "name": "getInitialized",
      "outputs": [
        {
          "internalType": "bool",
          "name": "",
          "type": "bool"
        }
      ],
      "stateMutability": "view",
      "type": "function"
    },
    {
      "inputs": [],
      "name": "getMintFee",
      "outputs": [
        {
          "internalType": "uint256",
          "name": "",
          "type": "uint256"
        }
      ],
      "stateMutability": "view",
      "type": "function"
    },
    {
      "inputs": [],
      "name": "getTokenCounter",
      "outputs": [
        {
          "internalType": "uint256",
          "name": "",
          "type": "uint256"
        }
      ],
      "stateMutability": "view",
      "type": "function"
    },
    {
      "inputs": [
        {
          "internalType": "address",
          "name": "owner",
          "type": "address"
        },
        {
          "internalType": "address",
          "name": "operator",
          "type": "address"
        }
      ],
      "name": "isApprovedForAll",
      "outputs": [
        {
          "internalType": "bool",
          "name": "",
          "type": "bool"
        }
      ],
      "stateMutability": "view",
      "type": "function"
    },
    {
      "inputs": [],
      "name": "name",
      "outputs": [
        {
          "internalType": "string",
          "name": "",
          "type": "string"
        }
      ],
      "stateMutability": "view",
      "type": "function"
    },
    {
      "inputs": [],
      "name": "owner",
      "outputs": [
        {
          "internalType": "address",
          "name": "",
          "type": "address"
        }
      ],
      "stateMutability": "view",
      "type": "function"
    },
    {
      "inputs": [
        {
          "internalType": "uint256",
          "name": "tokenId",
          "type": "uint256"
        }
      ],
      "name": "ownerOf",
      "outputs": [
        {
          "internalType": "address",
          "name": "",
          "type": "address"
        }
      ],
      "stateMutability": "view",
      "type": "function"
    },
    {
      "inputs": [
        {
          "internalType": "uint256",
          "name": "requestId",
          "type": "uint256"
        },
        {
          "internalType": "uint256[]",
          "name": "randomWords",
          "type": "uint256[]"
        }
      ],
      "name": "rawFulfillRandomWords",
      "outputs": [],
      "stateMutability": "nonpayable",
      "type": "function"
    },
    {
      "inputs": [],
      "name": "renounceOwnership",
      "outputs": [],
      "stateMutability": "nonpayable",
      "type": "function"
    },
    {
      "inputs": [],
      "name": "requestNft",
      "outputs": [
        {
          "internalType": "uint256",
          "name": "requestId",
          "type": "uint256"
        }
      ],
      "stateMutability": "payable",
      "type": "function"
    },
    {
      "inputs": [
        {
          "internalType": "uint256",
          "name": "",
          "type": "uint256"
        }
      ],
      "name": "s_requestIdToSender",
      "outputs": [
        {
          "internalType": "address",
          "name": "",
          "type": "address"
        }
      ],
      "stateMutability": "view",
      "type": "function"
    },
    {
      "inputs": [
        {
          "internalType": "address",
          "name": "from",
          "type": "address"
        },
        {
          "internalType": "address",
          "name": "to",
          "type": "address"
        },
        {
          "internalType": "uint256",
          "name": "tokenId",
          "type": "uint256"
        }
      ],
      "name": "safeTransferFrom",
      "outputs": [],
      "stateMutability": "nonpayable",
      "type": "function"
    },
    {
      "inputs": [
        {
          "internalType": "address",
          "name": "from",
          "type": "address"
        },
        {
          "internalType": "address",
          "name": "to",
          "type": "address"
        },
        {
          "internalType": "uint256",
          "name": "tokenId",
          "type": "uint256"
        },
        {
          "internalType": "bytes",
          "name": "data",
          "type": "bytes"
        }
      ],
      "name": "safeTransferFrom",
      "outputs": [],
      "stateMutability": "nonpayable",
      "type": "function"
    },
    {
      "inputs": [
        {
          "internalType": "address",
          "name": "operator",
          "type": "address"
        },
        {
          "internalType": "bool",
          "name": "approved",
          "type": "bool"
        }
      ],
      "name": "setApprovalForAll",
      "outputs": [],
      "stateMutability": "nonpayable",
      "type": "function"
    },
    {
      "inputs": [
        {
          "internalType": "bytes4",
          "name": "interfaceId",
          "type": "bytes4"
        }
      ],
      "name": "supportsInterface",
      "outputs": [
        {
          "internalType": "bool",
          "name": "",
          "type": "bool"
        }
      ],
      "stateMutability": "view",
      "type": "function"
    },
    {
      "inputs": [],
      "name": "symbol",
      "outputs": [
        {
          "internalType": "string",
          "name": "",
          "type": "string"
        }
      ],
      "stateMutability": "view",
      "type": "function"
    },
    {
      "inputs": [
        {
          "internalType": "uint256",
          "name": "tokenId",
          "type": "uint256"
        }
      ],
      "name": "tokenURI",
      "outputs": [
        {
          "internalType": "string",
          "name": "",
          "type": "string"
        }
      ],
      "stateMutability": "view",
      "type": "function"
    },
    {
      "inputs": [
        {
          "internalType": "address",
          "name": "from",
          "type": "address"
        },
        {
          "internalType": "address",
          "name": "to",
          "type": "address"
        },
        {
          "internalType": "uint256",
          "name": "tokenId",
          "type": "uint256"
        }
      ],
      "name": "transferFrom",
      "outputs": [],
      "stateMutability": "nonpayable",
      "type": "function"
    },
    {
      "inputs": [
        {
          "internalType": "address",
          "name": "newOwner",
          "type": "address"
        }
      ],
      "name": "transferOwnership",
      "outputs": [],
      "stateMutability": "nonpayable",
      "type": "function"
    },
    {
      "inputs": [],
      "name": "withdraw",
      "outputs": [],
      "stateMutability": "nonpayable",
      "type": "function"
    }
  ],
  "bytecode": "0x6101406040523480156200001257600080fd5b50604051620048bf380380620048bf8339818101604052810190620000389190620007ce565b856040518060400160405280600f81526020017f52616e646f6d2049504653204e465400000000000000000000000000000000008152506040518060400160405280600381526020017f52494e00000000000000000000000000000000000000000000000000000000008152508160009081620000b6919062000aca565b508060019081620000c8919062000aca565b5050508073ffffffffffffffffffffffffffffffffffffffff1660808173ffffffffffffffffffffffffffffffffffffffff1681525050506200012062000114620001bb60201b60201c565b620001c360201b60201c565b8573ffffffffffffffffffffffffffffffffffffffff1660a08173ffffffffffffffffffffffffffffffffffffffff16815250508360e081815250508467ffffffffffffffff1660c08167ffffffffffffffff16815250508261012081815250508163ffffffff166101008163ffffffff1681525050620001a7816200028960201b60201c565b600060088190555050505050505062000bb1565b600033905090565b6000600760009054906101000a900473ffffffffffffffffffffffffffffffffffffffff16905081600760006101000a81548173ffffffffffffffffffffffffffffffffffffffff021916908373ffffffffffffffffffffffffffffffffffffffff1602179055508173ffffffffffffffffffffffffffffffffffffffff168173ffffffffffffffffffffffffffffffffffffffff167f8be0079c531659141344cd1fd0a4f28419497f9722a3daafe3b4186f6b6457e060405160405180910390a35050565b600a60009054906101000a900460ff1615620002d1576040517fddf8bf7000000000000000000000000000000000000000000000000000000000815260040160405180910390fd5b806009906003620002e492919062000303565b506001600a60006101000a81548160ff02191690831515021790555050565b82805482825590600052602060002090810192821562000350579160200282015b828111156200034f5782518290816200033e919062000aca565b509160200191906001019062000324565b5b5090506200035f919062000363565b5090565b5b808211156200038757600081816200037d91906200038b565b5060010162000364565b5090565b5080546200039990620008c3565b6000825580601f10620003ad5750620003ce565b601f016020900490600052602060002090810190620003cd9190620003d1565b5b50565b5b80821115620003ec576000816000905550600101620003d2565b5090565b6000604051905090565b600080fd5b600080fd5b600073ffffffffffffffffffffffffffffffffffffffff82169050919050565b6000620004318262000404565b9050919050565b620004438162000424565b81146200044f57600080fd5b50565b600081519050620004638162000438565b92915050565b600067ffffffffffffffff82169050919050565b620004888162000469565b81146200049457600080fd5b50565b600081519050620004a8816200047d565b92915050565b6000819050919050565b620004c381620004ae565b8114620004cf57600080fd5b50565b600081519050620004e381620004b8565b92915050565b6000819050919050565b620004fe81620004e9565b81146200050a57600080fd5b50565b6000815190506200051e81620004f3565b92915050565b600063ffffffff82169050919050565b6200053f8162000524565b81146200054b57600080fd5b50565b6000815190506200055f8162000534565b92915050565b600080fd5b6000601f19601f8301169050919050565b7f4e487b7100000000000000000000000000000000000000000000000000000000600052604160045260246000fd5b620005b5826200056a565b810181811067ffffffffffffffff82111715620005d757620005d66200057b565b5b80604052505050565b6000620005ec620003f0565b9050620005fa8282620005aa565b919050565b600067ffffffffffffffff8211156200061d576200061c6200057b565b5b602082029050919050565b600080fd5b600080fd5b600067ffffffffffffffff82111562000650576200064f6200057b565b5b6200065b826200056a565b9050602081019050919050565b60005b83811015620006885780820151818401526020810190506200066b565b60008484015250505050565b6000620006ab620006a58462000632565b620005e0565b905082815260208101848484011115620006ca57620006c96200062d565b5b620006d784828562000668565b509392505050565b600082601f830112620006f757620006f662000565565b5b81516200070984826020860162000694565b91505092915050565b6000620007296200072384620005ff565b620005e0565b9050806020840283018581111562000746576200074562000628565b5b835b818110156200079457805167ffffffffffffffff8111156200076f576200076e62000565565b5b8086016200077e8982620006df565b8552602085019450505060208101905062000748565b5050509392505050565b600082601f830112620007b657620007b562000565565b5b6003620007c584828562000712565b91505092915050565b60008060008060008060c08789031215620007ee57620007ed620003fa565b5b6000620007fe89828a0162000452565b96505060206200081189828a0162000497565b95505060406200082489828a01620004d2565b94505060606200083789828a016200050d565b93505060806200084a89828a016200054e565b92505060a087015167ffffffffffffffff8111156200086e576200086d620003ff565b5b6200087c89828a016200079e565b9150509295509295509295565b600081519050919050565b7f4e487b7100000000000000000000000000000000000000000000000000000000600052602260045260246000fd5b60006002820490506001821680620008dc57607f821691505b602082108103620008f257620008f162000894565b5b50919050565b60008190508160005260206000209050919050565b60006020601f8301049050919050565b600082821b905092915050565b6000600883026200095c7fffffffffffffffffffffffffffffffffffffffffffffffffffffffffffffffff826200091d565b6200096886836200091d565b95508019841693508086168417925050509392505050565b6000819050919050565b6000620009ab620009a56200099f84620004e9565b62000980565b620004e9565b9050919050565b6000819050919050565b620009c7836200098a565b620009df620009d682620009b2565b8484546200092a565b825550505050565b600090565b620009f6620009e7565b62000a03818484620009bc565b505050565b5b8181101562000a2b5762000a1f600082620009ec565b60018101905062000a09565b5050565b601f82111562000a7a5762000a4481620008f8565b62000a4f846200090d565b8101602085101562000a5f578190505b62000a7762000a6e856200090d565b83018262000a08565b50505b505050565b600082821c905092915050565b600062000a9f6000198460080262000a7f565b1980831691505092915050565b600062000aba838362000a8c565b9150826002028217905092915050565b62000ad58262000889565b67ffffffffffffffff81111562000af15762000af06200057b565b5b62000afd8254620008c3565b62000b0a82828562000a2f565b600060209050601f83116001811462000b42576000841562000b2d578287015190505b62000b39858262000aac565b86555062000ba9565b601f19841662000b5286620008f8565b60005b8281101562000b7c5784890151825560018201915060208501945060208101905062000b55565b8683101562000b9c578489015162000b98601f89168262000a8c565b8355505b6001600288020188555050505b505050505050565b60805160a05160c05160e0516101005161012051613cb062000c0f60003960008181610cc10152610eba01526000610f9401526000610f5001526000610f7101526000610f1401526000818161089501526108e90152613cb06000f3fe6080604052600436106101815760003560e01c8063715018a6116100d1578063a51cccf31161008a578063c87b56dd11610064578063c87b56dd14610575578063e985e9c5146105b2578063ee89dab4146105ef578063f2fde38b1461061a57610181565b8063a51cccf3146104f1578063aa1524911461052e578063b88d4fde1461054c57610181565b8063715018a6146103f35780637a5caab31461040a5780638da5cb5b1461043557806395d89b4114610460578063a22cb4651461048b578063a36f573b146104b457610181565b80633af259751161013e5780635dacf5f4116101185780635dacf5f4146103235780636352211e1461034e5780636e02007d1461038b57806370a08231146103b657610181565b80633af25975146102a65780633ccfd60b146102e357806342842e0e146102fa57610181565b806301ffc9a71461018657806306fdde03146101c3578063081812fc146101ee578063095ea7b31461022b5780631fe543e31461025457806323b872dd1461027d575b600080fd5b34801561019257600080fd5b506101ad60048036038101906101a8919061269b565b610643565b6040516101ba91906126e3565b60405180910390f35b3480156101cf57600080fd5b506101d86106a4565b6040516101e5919061278e565b60405180910390f35b3480156101fa57600080fd5b50610215600480360381019061021091906127e6565b610736565b6040516102229190612854565b60405180910390f35b34801561023757600080fd5b50610252600480360381019061024d919061289b565b61077c565b005b34801561026057600080fd5b5061027b60048036038101906102769190612a23565b610893565b005b34801561028957600080fd5b506102a4600480360381019061029f9190612a7f565b610953565b005b3480156102b257600080fd5b506102cd60048036038101906102c891906127e6565b6109b3565b6040516102da919061278e565b60405180910390f35b3480156102ef57600080fd5b506102f8610a63565b005b34801561030657600080fd5b50610321600480360381019061031c9190612a7f565b610b17565b005b34801561032f57600080fd5b50610338610b37565b6040516103459190612b7d565b60405180910390f35b34801561035a57600080fd5b50610375600480360381019061037091906127e6565b610b62565b6040516103829190612854565b60405180910390f35b34801561039757600080fd5b506103a0610be8565b6040516103ad9190612ba7565b60405180910390f35b3480156103c257600080fd5b506103dd60048036038101906103d89190612bc2565b610bf2565b6040516103ea9190612ba7565b60405180910390f35b3480156103ff57600080fd5b50610408610ca9565b005b34801561041657600080fd5b5061041f610cbd565b60405161042c9190612ba7565b60405180910390f35b34801561044157600080fd5b5061044a610ce5565b6040516104579190612854565b60405180910390f35b34801561046c57600080fd5b50610475610d0f565b604051610482919061278e565b60405180910390f35b34801561049757600080fd5b506104b260048036038101906104ad9190612c1b565b610da1565b005b3480156104c057600080fd5b506104db60048036038101906104d691906127e6565b610db7565b6040516104e89190612854565b60405180910390f35b3480156104fd57600080fd5b50610518600480360381019061051391906127e6565b610dea565b6040516105259190612cd2565b60405180910390f35b610536610eb6565b6040516105439190612ba7565b60405180910390f35b34801561055857600080fd5b50610573600480360381019061056e9190612da2565b6110b3565b005b34801561058157600080fd5b5061059c600480360381019061059791906127e6565b611115565b6040516105a9919061278e565b60405180910390f35b3480156105be57600080fd5b506105d960048036038101906105d49190612e25565b611227565b6040516105e691906126e3565b60405180910390f35b3480156105fb57600080fd5b506106046112bb565b60405161061191906126e3565b60405180910390f35b34801561062657600080fd5b50610641600480360381019061063c9190612bc2565b6112d2565b005b6000634906490660e01b7bffffffffffffffffffffffffffffffffffffffffffffffffffffffff1916827bffffffffffffffffffffffffffffffffffffffffffffffffffffffff1916148061069d575061069c82611355565b5b9050919050565b6060600080546106b390612e94565b80601f01602080910402602001604051908101604052809291908181526020018280546106df90612e94565b801561072c5780601f106107015761010080835404028352916020019161072c565b820191906000526020600020905b81548152906001019060200180831161070f57829003601f168201915b5050505050905090565b600061074182611437565b6004600083815260200190815260200160002060009054906101000a900473ffffffffffffffffffffffffffffffffffffffff169050919050565b600061078782610b62565b90508073ffffffffffffffffffffffffffffffffffffffff168373ffffffffffffffffffffffffffffffffffffffff16036107f7576040517f08c379a00000000000000000000000000000000000000000000000000000000081526004016107ee90612f37565b60405180910390fd5b8073ffffffffffffffffffffffffffffffffffffffff16610816611482565b73ffffffffffffffffffffffffffffffffffffffff16148061084557506108448161083f611482565b611227565b5b610884576040517f08c379a000000000000000000000000000000000000000000000000000000000815260040161087b90612fc9565b60405180910390fd5b61088e838361148a565b505050565b7f000000000000000000000000000000000000000000000000000000000000000073ffffffffffffffffffffffffffffffffffffffff163373ffffffffffffffffffffffffffffffffffffffff161461094557337f00000000000000000000000000000000000000000000000000000000000000006040517f1cf993f400000000000000000000000000000000000000000000000000000000815260040161093c929190612fe9565b60405180910390fd5b61094f8282611543565b5050565b61096461095e611482565b826116fb565b6109a3576040517f08c379a000000000000000000000000000000000000000000000000000000000815260040161099a90613084565b60405180910390fd5b6109ae838383611790565b505050565b6060600982815481106109c9576109c86130a4565b5b9060005260206000200180546109de90612e94565b80601f0160208091040260200160405190810160405280929190818152602001828054610a0a90612e94565b8015610a575780601f10610a2c57610100808354040283529160200191610a57565b820191906000526020600020905b815481529060010190602001808311610a3a57829003601f168201915b50505050509050919050565b610a6b611a89565b600047905060003373ffffffffffffffffffffffffffffffffffffffff1682604051610a9690613104565b60006040518083038185875af1925050503d8060008114610ad3576040519150601f19603f3d011682016040523d82523d6000602084013e610ad8565b606091505b5050905080610b13576040517fca7e25b700000000000000000000000000000000000000000000000000000000815260040160405180910390fd5b5050565b610b32838383604051806020016040528060008152506110b3565b505050565b610b3f61260d565b6040518060600160405280600a8152602001602881526020016064815250905090565b600080610b6e83611b07565b9050600073ffffffffffffffffffffffffffffffffffffffff168173ffffffffffffffffffffffffffffffffffffffff1603610bdf576040517f08c379a0000000000000000000000000000000000000000000000000000000008152600401610bd690613165565b60405180910390fd5b80915050919050565b6000600854905090565b60008073ffffffffffffffffffffffffffffffffffffffff168273ffffffffffffffffffffffffffffffffffffffff1603610c62576040517f08c379a0000000000000000000000000000000000000000000000000000000008152600401610c59906131f7565b60405180910390fd5b600360008373ffffffffffffffffffffffffffffffffffffffff1673ffffffffffffffffffffffffffffffffffffffff168152602001908152602001600020549050919050565b610cb1611a89565b610cbb6000611b44565b565b60007f0000000000000000000000000000000000000000000000000000000000000000905090565b6000600760009054906101000a900473ffffffffffffffffffffffffffffffffffffffff16905090565b606060018054610d1e90612e94565b80601f0160208091040260200160405190810160405280929190818152602001828054610d4a90612e94565b8015610d975780601f10610d6c57610100808354040283529160200191610d97565b820191906000526020600020905b815481529060010190602001808311610d7a57829003601f168201915b5050505050905090565b610db3610dac611482565b8383611c0a565b5050565b600b6020528060005260406000206000915054906101000a900473ffffffffffffffffffffffffffffffffffffffff1681565b600080600090506000610dfb610b37565b905060005b6003811015610e7e57828510158015610e2f5750818160038110610e2757610e266130a4565b5b602002015185105b15610e5157806002811115610e4757610e46612c5b565b5b9350505050610eb1565b818160038110610e6457610e636130a4565b5b602002015192508080610e7690613246565b915050610e00565b506040517f12806c9d00000000000000000000000000000000000000000000000000000000815260040160405180910390fd5b919050565b60007f0000000000000000000000000000000000000000000000000000000000000000341015610f12576040517fb90f491000000000000000000000000000000000000000000000000000000000815260040160405180910390fd5b7f000000000000000000000000000000000000000000000000000000000000000073ffffffffffffffffffffffffffffffffffffffff16635d3b1d307f00000000000000000000000000000000000000000000000000000000000000007f000000000000000000000000000000000000000000000000000000000000000060037f000000000000000000000000000000000000000000000000000000000000000060016040518663ffffffff1660e01b8152600401610fd5959493929190613306565b6020604051808303816000875af1158015610ff4573d6000803e3d6000fd5b505050506040513d601f19601f82011682018060405250810190611018919061336e565b905033600b600083815260200190815260200160002060006101000a81548173ffffffffffffffffffffffffffffffffffffffff021916908373ffffffffffffffffffffffffffffffffffffffff1602179055503373ffffffffffffffffffffffffffffffffffffffff16817ff873236e6cc0ecc5be1a9a35c95ee5b8d1ac4cc7bfef0cc5060391d6cc98e26b60405160405180910390a390565b6110c46110be611482565b836116fb565b611103576040517f08c379a00000000000000000000000000000000000000000000000000000000081526004016110fa90613084565b60405180910390fd5b61110f84848484611d76565b50505050565b606061112082611437565b600060066000848152602001908152602001600020805461114090612e94565b80601f016020809104026020016040519081016040528092919081815260200182805461116c90612e94565b80156111b95780601f1061118e576101008083540402835291602001916111b9565b820191906000526020600020905b81548152906001019060200180831161119c57829003601f168201915b5050505050905060006111ca611dd2565b905060008151036111df578192505050611222565b6000825111156112145780826040516020016111fc9291906133d7565b60405160208183030381529060405292505050611222565b61121d84611de9565b925050505b919050565b6000600560008473ffffffffffffffffffffffffffffffffffffffff1673ffffffffffffffffffffffffffffffffffffffff16815260200190815260200160002060008373ffffffffffffffffffffffffffffffffffffffff1673ffffffffffffffffffffffffffffffffffffffff16815260200190815260200160002060009054906101000a900460ff16905092915050565b6000600a60009054906101000a900460ff16905090565b6112da611a89565b600073ffffffffffffffffffffffffffffffffffffffff168173ffffffffffffffffffffffffffffffffffffffff1603611349576040517f08c379a00000000000000000000000000000000000000000000000000000000081526004016113409061346d565b60405180910390fd5b61135281611b44565b50565b60007f80ac58cd000000000000000000000000000000000000000000000000000000007bffffffffffffffffffffffffffffffffffffffffffffffffffffffff1916827bffffffffffffffffffffffffffffffffffffffffffffffffffffffff1916148061142057507f5b5e139f000000000000000000000000000000000000000000000000000000007bffffffffffffffffffffffffffffffffffffffffffffffffffffffff1916827bffffffffffffffffffffffffffffffffffffffffffffffffffffffff1916145b80611430575061142f82611e51565b5b9050919050565b61144081611ebb565b61147f576040517f08c379a000000000000000000000000000000000000000000000000000000000815260040161147690613165565b60405180910390fd5b50565b600033905090565b816004600083815260200190815260200160002060006101000a81548173ffffffffffffffffffffffffffffffffffffffff021916908373ffffffffffffffffffffffffffffffffffffffff160217905550808273ffffffffffffffffffffffffffffffffffffffff166114fd83610b62565b73ffffffffffffffffffffffffffffffffffffffff167f8c5be1e5ebec7d5bd14f71427d1e84f3dd0314c0f7b2291e5b200ac8c7c3b92560405160405180910390a45050565b6000600b600084815260200190815260200160002060009054906101000a900473ffffffffffffffffffffffffffffffffffffffff169050600060085490506001600854611591919061348d565b60088190555060006064846000815181106115af576115ae6130a4565b5b60200260200101516115c191906134f0565b905060006115ce82610dea565b90506115da8484611efc565b61169c8360098360028111156115f3576115f2612c5b565b5b81548110611604576116036130a4565b5b90600052602060002001805461161990612e94565b80601f016020809104026020016040519081016040528092919081815260200182805461164590612e94565b80156116925780601f1061166757610100808354040283529160200191611692565b820191906000526020600020905b81548152906001019060200180831161167557829003601f168201915b5050505050611f1a565b8373ffffffffffffffffffffffffffffffffffffffff168160028111156116c6576116c5612c5b565b5b847f826d84de86b9d47351ad75c90b9a8b7211e761e448ccd64623fc26341dd0b8dc60405160405180910390a4505050505050565b60008061170783610b62565b90508073ffffffffffffffffffffffffffffffffffffffff168473ffffffffffffffffffffffffffffffffffffffff16148061174957506117488185611227565b5b8061178757508373ffffffffffffffffffffffffffffffffffffffff1661176f84610736565b73ffffffffffffffffffffffffffffffffffffffff16145b91505092915050565b8273ffffffffffffffffffffffffffffffffffffffff166117b082610b62565b73ffffffffffffffffffffffffffffffffffffffff1614611806576040517f08c379a00000000000000000000000000000000000000000000000000000000081526004016117fd90613593565b60405180910390fd5b600073ffffffffffffffffffffffffffffffffffffffff168273ffffffffffffffffffffffffffffffffffffffff1603611875576040517f08c379a000000000000000000000000000000000000000000000000000000000815260040161186c90613625565b60405180910390fd5b6118828383836001611fbe565b8273ffffffffffffffffffffffffffffffffffffffff166118a282610b62565b73ffffffffffffffffffffffffffffffffffffffff16146118f8576040517f08c379a00000000000000000000000000000000000000000000000000000000081526004016118ef90613593565b60405180910390fd5b6004600082815260200190815260200160002060006101000a81549073ffffffffffffffffffffffffffffffffffffffff02191690556001600360008573ffffffffffffffffffffffffffffffffffffffff1673ffffffffffffffffffffffffffffffffffffffff168152602001908152602001600020600082825403925050819055506001600360008473ffffffffffffffffffffffffffffffffffffffff1673ffffffffffffffffffffffffffffffffffffffff16815260200190815260200160002060008282540192505081905550816002600083815260200190815260200160002060006101000a81548173ffffffffffffffffffffffffffffffffffffffff021916908373ffffffffffffffffffffffffffffffffffffffff160217905550808273ffffffffffffffffffffffffffffffffffffffff168473ffffffffffffffffffffffffffffffffffffffff167fddf252ad1be2c89b69c2b068fc378daa952ba7f163c4a11628f55a4df523b3ef60405160405180910390a4611a848383836001611fc4565b505050565b611a91611482565b73ffffffffffffffffffffffffffffffffffffffff16611aaf610ce5565b73ffffffffffffffffffffffffffffffffffffffff1614611b05576040517f08c379a0000000000000000000000000000000000000000000000000000000008152600401611afc90613691565b60405180910390fd5b565b60006002600083815260200190815260200160002060009054906101000a900473ffffffffffffffffffffffffffffffffffffffff169050919050565b6000600760009054906101000a900473ffffffffffffffffffffffffffffffffffffffff16905081600760006101000a81548173ffffffffffffffffffffffffffffffffffffffff021916908373ffffffffffffffffffffffffffffffffffffffff1602179055508173ffffffffffffffffffffffffffffffffffffffff168173ffffffffffffffffffffffffffffffffffffffff167f8be0079c531659141344cd1fd0a4f28419497f9722a3daafe3b4186f6b6457e060405160405180910390a35050565b8173ffffffffffffffffffffffffffffffffffffffff168373ffffffffffffffffffffffffffffffffffffffff1603611c78576040517f08c379a0000000000000000000000000000000000000000000000000000000008152600401611c6f906136fd565b60405180910390fd5b80600560008573ffffffffffffffffffffffffffffffffffffffff1673ffffffffffffffffffffffffffffffffffffffff16815260200190815260200160002060008473ffffffffffffffffffffffffffffffffffffffff1673ffffffffffffffffffffffffffffffffffffffff16815260200190815260200160002060006101000a81548160ff0219169083151502179055508173ffffffffffffffffffffffffffffffffffffffff168373ffffffffffffffffffffffffffffffffffffffff167f17307eab39ab6107e8899845ad3d59bd9653f200f220920489ca2b5937696c3183604051611d6991906126e3565b60405180910390a3505050565b611d81848484611790565b611d8d84848484611fca565b611dcc576040517f08c379a0000000000000000000000000000000000000000000000000000000008152600401611dc39061378f565b60405180910390fd5b50505050565b606060405180602001604052806000815250905090565b6060611df482611437565b6000611dfe611dd2565b90506000815111611e1e5760405180602001604052806000815250611e49565b80611e2884612151565b604051602001611e399291906133d7565b6040516020818303038152906040525b915050919050565b60007f01ffc9a7000000000000000000000000000000000000000000000000000000007bffffffffffffffffffffffffffffffffffffffffffffffffffffffff1916827bffffffffffffffffffffffffffffffffffffffffffffffffffffffff1916149050919050565b60008073ffffffffffffffffffffffffffffffffffffffff16611edd83611b07565b73ffffffffffffffffffffffffffffffffffffffff1614159050919050565b611f1682826040518060200160405280600081525061221f565b5050565b611f2382611ebb565b611f62576040517f08c379a0000000000000000000000000000000000000000000000000000000008152600401611f5990613821565b60405180910390fd5b80600660008481526020019081526020016000209081611f8291906139ed565b507ff8e1a15aba9398e019f0b49df1a4fde98ee17ae345cb5f6b5e2c27f5033e8ce782604051611fb29190612ba7565b60405180910390a15050565b50505050565b50505050565b6000611feb8473ffffffffffffffffffffffffffffffffffffffff1661227a565b15612144578373ffffffffffffffffffffffffffffffffffffffff1663150b7a02612014611482565b8786866040518563ffffffff1660e01b81526004016120369493929190613b14565b6020604051808303816000875af192505050801561207257506040513d601f19601f8201168201806040525081019061206f9190613b75565b60015b6120f4573d80600081146120a2576040519150601f19603f3d011682016040523d82523d6000602084013e6120a7565b606091505b5060008151036120ec576040517f08c379a00000000000000000000000000000000000000000000000000000000081526004016120e39061378f565b60405180910390fd5b805181602001fd5b63150b7a0260e01b7bffffffffffffffffffffffffffffffffffffffffffffffffffffffff1916817bffffffffffffffffffffffffffffffffffffffffffffffffffffffff191614915050612149565b600190505b949350505050565b6060600060016121608461229d565b01905060008167ffffffffffffffff81111561217f5761217e6128e0565b5b6040519080825280601f01601f1916602001820160405280156121b15781602001600182028036833780820191505090505b509050600082602001820190505b600115612214578080600190039150507f3031323334353637383961626364656600000000000000000000000000000000600a86061a8153600a8581612208576122076134c1565b5b049450600085036121bf575b819350505050919050565b61222983836123f0565b6122366000848484611fca565b612275576040517f08c379a000000000000000000000000000000000000000000000000000000000815260040161226c9061378f565b60405180910390fd5b505050565b6000808273ffffffffffffffffffffffffffffffffffffffff163b119050919050565b600080600090507a184f03e93ff9f4daa797ed6e38ed64bf6a1f01000000000000000083106122fb577a184f03e93ff9f4daa797ed6e38ed64bf6a1f01000000000000000083816122f1576122f06134c1565b5b0492506040810190505b6d04ee2d6d415b85acef81000000008310612338576d04ee2d6d415b85acef8100000000838161232e5761232d6134c1565b5b0492506020810190505b662386f26fc10000831061236757662386f26fc10000838161235d5761235c6134c1565b5b0492506010810190505b6305f5e1008310612390576305f5e1008381612386576123856134c1565b5b0492506008810190505b61271083106123b55761271083816123ab576123aa6134c1565b5b0492506004810190505b606483106123d857606483816123ce576123cd6134c1565b5b0492506002810190505b600a83106123e7576001810190505b80915050919050565b600073ffffffffffffffffffffffffffffffffffffffff168273ffffffffffffffffffffffffffffffffffffffff160361245f576040517f08c379a000000000000000000000000000000000000000000000000000000000815260040161245690613bee565b60405180910390fd5b61246881611ebb565b156124a8576040517f08c379a000000000000000000000000000000000000000000000000000000000815260040161249f90613c5a565b60405180910390fd5b6124b6600083836001611fbe565b6124bf81611ebb565b156124ff576040517f08c379a00000000000000000000000000000000000000000000000000000000081526004016124f690613c5a565b60405180910390fd5b6001600360008473ffffffffffffffffffffffffffffffffffffffff1673ffffffffffffffffffffffffffffffffffffffff16815260200190815260200160002060008282540192505081905550816002600083815260200190815260200160002060006101000a81548173ffffffffffffffffffffffffffffffffffffffff021916908373ffffffffffffffffffffffffffffffffffffffff160217905550808273ffffffffffffffffffffffffffffffffffffffff16600073ffffffffffffffffffffffffffffffffffffffff167fddf252ad1be2c89b69c2b068fc378daa952ba7f163c4a11628f55a4df523b3ef60405160405180910390a4612609600083836001611fc4565b5050565b6040518060600160405280600390602082028036833780820191505090505090565b6000604051905090565b600080fd5b600080fd5b60007fffffffff0000000000000000000000000000000000000000000000000000000082169050919050565b61267881612643565b811461268357600080fd5b50565b6000813590506126958161266f565b92915050565b6000602082840312156126b1576126b0612639565b5b60006126bf84828501612686565b91505092915050565b60008115159050919050565b6126dd816126c8565b82525050565b60006020820190506126f860008301846126d4565b92915050565b600081519050919050565b600082825260208201905092915050565b60005b8381101561273857808201518184015260208101905061271d565b60008484015250505050565b6000601f19601f8301169050919050565b6000612760826126fe565b61276a8185612709565b935061277a81856020860161271a565b61278381612744565b840191505092915050565b600060208201905081810360008301526127a88184612755565b905092915050565b6000819050919050565b6127c3816127b0565b81146127ce57600080fd5b50565b6000813590506127e0816127ba565b92915050565b6000602082840312156127fc576127fb612639565b5b600061280a848285016127d1565b91505092915050565b600073ffffffffffffffffffffffffffffffffffffffff82169050919050565b600061283e82612813565b9050919050565b61284e81612833565b82525050565b60006020820190506128696000830184612845565b92915050565b61287881612833565b811461288357600080fd5b50565b6000813590506128958161286f565b92915050565b600080604083850312156128b2576128b1612639565b5b60006128c085828601612886565b92505060206128d1858286016127d1565b9150509250929050565b600080fd5b7f4e487b7100000000000000000000000000000000000000000000000000000000600052604160045260246000fd5b61291882612744565b810181811067ffffffffffffffff82111715612937576129366128e0565b5b80604052505050565b600061294a61262f565b9050612956828261290f565b919050565b600067ffffffffffffffff821115612976576129756128e0565b5b602082029050602081019050919050565b600080fd5b600061299f61299a8461295b565b612940565b905080838252602082019050602084028301858111156129c2576129c1612987565b5b835b818110156129eb57806129d788826127d1565b8452602084019350506020810190506129c4565b5050509392505050565b600082601f830112612a0a57612a096128db565b5b8135612a1a84826020860161298c565b91505092915050565b60008060408385031215612a3a57612a39612639565b5b6000612a48858286016127d1565b925050602083013567ffffffffffffffff811115612a6957612a6861263e565b5b612a75858286016129f5565b9150509250929050565b600080600060608486031215612a9857612a97612639565b5b6000612aa686828701612886565b9350506020612ab786828701612886565b9250506040612ac8868287016127d1565b9150509250925092565b600060039050919050565b600081905092915050565b6000819050919050565b612afb816127b0565b82525050565b6000612b0d8383612af2565b60208301905092915050565b6000602082019050919050565b612b2f81612ad2565b612b398184612add565b9250612b4482612ae8565b8060005b83811015612b75578151612b5c8782612b01565b9650612b6783612b19565b925050600181019050612b48565b505050505050565b6000606082019050612b926000830184612b26565b92915050565b612ba1816127b0565b82525050565b6000602082019050612bbc6000830184612b98565b92915050565b600060208284031215612bd857612bd7612639565b5b6000612be684828501612886565b91505092915050565b612bf8816126c8565b8114612c0357600080fd5b50565b600081359050612c1581612bef565b92915050565b60008060408385031215612c3257612c31612639565b5b6000612c4085828601612886565b9250506020612c5185828601612c06565b9150509250929050565b7f4e487b7100000000000000000000000000000000000000000000000000000000600052602160045260246000fd5b60038110612c9b57612c9a612c5b565b5b50565b6000819050612cac82612c8a565b919050565b6000612cbc82612c9e565b9050919050565b612ccc81612cb1565b82525050565b6000602082019050612ce76000830184612cc3565b92915050565b600080fd5b600067ffffffffffffffff821115612d0d57612d0c6128e0565b5b612d1682612744565b9050602081019050919050565b82818337600083830152505050565b6000612d45612d4084612cf2565b612940565b905082815260208101848484011115612d6157612d60612ced565b5b612d6c848285612d23565b509392505050565b600082601f830112612d8957612d886128db565b5b8135612d99848260208601612d32565b91505092915050565b60008060008060808587031215612dbc57612dbb612639565b5b6000612dca87828801612886565b9450506020612ddb87828801612886565b9350506040612dec878288016127d1565b925050606085013567ffffffffffffffff811115612e0d57612e0c61263e565b5b612e1987828801612d74565b91505092959194509250565b60008060408385031215612e3c57612e3b612639565b5b6000612e4a85828601612886565b9250506020612e5b85828601612886565b9150509250929050565b7f4e487b7100000000000000000000000000000000000000000000000000000000600052602260045260246000fd5b60006002820490506001821680612eac57607f821691505b602082108103612ebf57612ebe612e65565b5b50919050565b7f4552433732313a20617070726f76616c20746f2063757272656e74206f776e6560008201527f7200000000000000000000000000000000000000000000000000000000000000602082015250565b6000612f21602183612709565b9150612f2c82612ec5565b604082019050919050565b60006020820190508181036000830152612f5081612f14565b9050919050565b7f4552433732313a20617070726f76652063616c6c6572206973206e6f7420746f60008201527f6b656e206f776e6572206f7220617070726f76656420666f7220616c6c000000602082015250565b6000612fb3603d83612709565b9150612fbe82612f57565b604082019050919050565b60006020820190508181036000830152612fe281612fa6565b9050919050565b6000604082019050612ffe6000830185612845565b61300b6020830184612845565b9392505050565b7f4552433732313a2063616c6c6572206973206e6f7420746f6b656e206f776e6560008201527f72206f7220617070726f76656400000000000000000000000000000000000000602082015250565b600061306e602d83612709565b915061307982613012565b604082019050919050565b6000602082019050818103600083015261309d81613061565b9050919050565b7f4e487b7100000000000000000000000000000000000000000000000000000000600052603260045260246000fd5b600081905092915050565b50565b60006130ee6000836130d3565b91506130f9826130de565b600082019050919050565b600061310f826130e1565b9150819050919050565b7f4552433732313a20696e76616c696420746f6b656e2049440000000000000000600082015250565b600061314f601883612709565b915061315a82613119565b602082019050919050565b6000602082019050818103600083015261317e81613142565b9050919050565b7f4552433732313a2061646472657373207a65726f206973206e6f74206120766160008201527f6c6964206f776e65720000000000000000000000000000000000000000000000602082015250565b60006131e1602983612709565b91506131ec82613185565b604082019050919050565b60006020820190508181036000830152613210816131d4565b9050919050565b7f4e487b7100000000000000000000000000000000000000000000000000000000600052601160045260246000fd5b6000613251826127b0565b91507fffffffffffffffffffffffffffffffffffffffffffffffffffffffffffffffff820361328357613282613217565b5b600182019050919050565b6000819050919050565b6132a18161328e565b82525050565b600067ffffffffffffffff82169050919050565b6132c4816132a7565b82525050565b600061ffff82169050919050565b6132e1816132ca565b82525050565b600063ffffffff82169050919050565b613300816132e7565b82525050565b600060a08201905061331b6000830188613298565b61332860208301876132bb565b61333560408301866132d8565b61334260608301856132f7565b61334f60808301846132f7565b9695505050505050565b600081519050613368816127ba565b92915050565b60006020828403121561338457613383612639565b5b600061339284828501613359565b91505092915050565b600081905092915050565b60006133b1826126fe565b6133bb818561339b565b93506133cb81856020860161271a565b80840191505092915050565b60006133e382856133a6565b91506133ef82846133a6565b91508190509392505050565b7f4f776e61626c653a206e6577206f776e657220697320746865207a65726f206160008201527f6464726573730000000000000000000000000000000000000000000000000000602082015250565b6000613457602683612709565b9150613462826133fb565b604082019050919050565b600060208201905081810360008301526134868161344a565b9050919050565b6000613498826127b0565b91506134a3836127b0565b92508282019050808211156134bb576134ba613217565b5b92915050565b7f4e487b7100000000000000000000000000000000000000000000000000000000600052601260045260246000fd5b60006134fb826127b0565b9150613506836127b0565b925082613516576135156134c1565b5b828206905092915050565b7f4552433732313a207472616e736665722066726f6d20696e636f72726563742060008201527f6f776e6572000000000000000000000000000000000000000000000000000000602082015250565b600061357d602583612709565b915061358882613521565b604082019050919050565b600060208201905081810360008301526135ac81613570565b9050919050565b7f4552433732313a207472616e7366657220746f20746865207a65726f2061646460008201527f7265737300000000000000000000000000000000000000000000000000000000602082015250565b600061360f602483612709565b915061361a826135b3565b604082019050919050565b6000602082019050818103600083015261363e81613602565b9050919050565b7f4f776e61626c653a2063616c6c6572206973206e6f7420746865206f776e6572600082015250565b600061367b602083612709565b915061368682613645565b602082019050919050565b600060208201905081810360008301526136aa8161366e565b9050919050565b7f4552433732313a20617070726f766520746f2063616c6c657200000000000000600082015250565b60006136e7601983612709565b91506136f2826136b1565b602082019050919050565b60006020820190508181036000830152613716816136da565b9050919050565b7f4552433732313a207472616e7366657220746f206e6f6e20455243373231526560008201527f63656976657220696d706c656d656e7465720000000000000000000000000000602082015250565b6000613779603283612709565b91506137848261371d565b604082019050919050565b600060208201905081810360008301526137a88161376c565b9050919050565b7f45524337323155524953746f726167653a2055524920736574206f66206e6f6e60008201527f6578697374656e7420746f6b656e000000000000000000000000000000000000602082015250565b600061380b602e83612709565b9150613816826137af565b604082019050919050565b6000602082019050818103600083015261383a816137fe565b9050919050565b60008190508160005260206000209050919050565b60006020601f8301049050919050565b600082821b905092915050565b6000600883026138a37fffffffffffffffffffffffffffffffffffffffffffffffffffffffffffffffff82613866565b6138ad8683613866565b95508019841693508086168417925050509392505050565b6000819050919050565b60006138ea6138e56138e0846127b0565b6138c5565b6127b0565b9050919050565b6000819050919050565b613904836138cf565b613918613910826138f1565b848454613873565b825550505050565b600090565b61392d613920565b6139388184846138fb565b505050565b5b8181101561395c57613951600082613925565b60018101905061393e565b5050565b601f8211156139a15761397281613841565b61397b84613856565b8101602085101561398a578190505b61399e61399685613856565b83018261393d565b50505b505050565b600082821c905092915050565b60006139c4600019846008026139a6565b1980831691505092915050565b60006139dd83836139b3565b9150826002028217905092915050565b6139f6826126fe565b67ffffffffffffffff811115613a0f57613a0e6128e0565b5b613a198254612e94565b613a24828285613960565b600060209050601f831160018114613a575760008415613a45578287015190505b613a4f85826139d1565b865550613ab7565b601f198416613a6586613841565b60005b82811015613a8d57848901518255600182019150602085019450602081019050613a68565b86831015613aaa5784890151613aa6601f8916826139b3565b8355505b6001600288020188555050505b505050505050565b600081519050919050565b600082825260208201905092915050565b6000613ae682613abf565b613af08185613aca565b9350613b0081856020860161271a565b613b0981612744565b840191505092915050565b6000608082019050613b296000830187612845565b613b366020830186612845565b613b436040830185612b98565b8181036060830152613b558184613adb565b905095945050505050565b600081519050613b6f8161266f565b92915050565b600060208284031215613b8b57613b8a612639565b5b6000613b9984828501613b60565b91505092915050565b7f4552433732313a206d696e7420746f20746865207a65726f2061646472657373600082015250565b6000613bd8602083612709565b9150613be382613ba2565b602082019050919050565b60006020820190508181036000830152613c0781613bcb565b9050919050565b7f4552433732313a20746f6b656e20616c7265616479206d696e74656400000000600082015250565b6000613c44601c83612709565b9150613c4f82613c0e565b602082019050919050565b60006020820190508181036000830152613c7381613c37565b905091905056fea26469706673582212209410f636cabe1811542071f436fabc86cf893c1c9f5d6d4a4a9a24e01e56e4df64736f6c63430008140033",
  "linkReferences": {},
  "deployedLinkReferences": {}
}