{
  "_format": "hh-sol-artifact-1",
  "contractName": "BasicNft",
  "sourceName": "contracts/BasicNft.sol",
  "abi": [
    {
      "inputs": [],
      "stateMutability": "nonpayable",
      "type": "constructor"
    },
    {
      "anonymous": false,
      "inputs": [
        {
          "indexed": true,
          "internalType": "address",
          "name": "owner",
          "type": "address"
        },
        {
          "indexed": true,
          "internalType": "address",
          "name": "approved",
          "type": "address"
        },
        {
          "indexed": true,
          "internalType": "uint256",
          "name": "tokenId",
          "type": "uint256"
        }
      ],
      "name": "Approval",
      "type": "event"
    },
    {
      "anonymous": false,
      "inputs": [
        {
          "indexed": true,
          "internalType": "address",
          "name": "owner",
          "type": "address"
        },
        {
          "indexed": true,
          "internalType": "address",
          "name": "operator",
          "type": "address"
        },
        {
          "indexed": false,
          "internalType": "bool",
          "name": "approved",
          "type": "bool"
        }
      ],
      "name": "ApprovalForAll",
      "type": "event"
    },
    {
      "anonymous": false,
      "inputs": [
        {
          "indexed": true,
          "internalType": "address",
          "name": "from",
          "type": "address"
        },
        {
          "indexed": true,
          "internalType": "address",
          "name": "to",
          "type": "address"
        },
        {
          "indexed": true,
          "internalType": "uint256",
          "name": "tokenId",
          "type": "uint256"
        }
      ],
      "name": "Transfer",
      "type": "event"
    },
    {
      "inputs": [],
      "name": "TOKEN_URI",
      "outputs": [
        {
          "internalType": "string",
          "name": "",
          "type": "string"
        }
      ],
      "stateMutability": "view",
      "type": "function"
    },
    {
      "inputs": [
        {
          "internalType": "address",
          "name": "to",
          "type": "address"
        },
        {
          "internalType": "uint256",
          "name": "tokenId",
          "type": "uint256"
        }
      ],
      "name": "approve",
      "outputs": [],
      "stateMutability": "nonpayable",
      "type": "function"
    },
    {
      "inputs": [
        {
          "internalType": "address",
          "name": "owner",
          "type": "address"
        }
      ],
      "name": "balanceOf",
      "outputs": [
        {
          "internalType": "uint256",
          "name": "",
          "type": "uint256"
        }
      ],
      "stateMutability": "view",
      "type": "function"
    },
    {
      "inputs": [
        {
          "internalType": "uint256",
          "name": "tokenId",
          "type": "uint256"
        }
      ],
      "name": "getApproved",
      "outputs": [
        {
          "internalType": "address",
          "name": "",
          "type": "address"
        }
      ],
      "stateMutability": "view",
      "type": "function"
    },
    {
      "inputs": [],
      "name": "getTokenCounter",
      "outputs": [
        {
          "internalType": "uint256",
          "name": "",
          "type": "uint256"
        }
      ],
      "stateMutability": "view",
      "type": "function"
    },
    {
      "inputs": [
        {
          "internalType": "address",
          "name": "owner",
          "type": "address"
        },
        {
          "internalType": "address",
          "name": "operator",
          "type": "address"
        }
      ],
      "name": "isApprovedForAll",
      "outputs": [
        {
          "internalType": "bool",
          "name": "",
          "type": "bool"
        }
      ],
      "stateMutability": "view",
      "type": "function"
    },
    {
      "inputs": [],
      "name": "mintNft",
      "outputs": [],
      "stateMutability": "nonpayable",
      "type": "function"
    },
    {
      "inputs": [],
      "name": "name",
      "outputs": [
        {
          "internalType": "string",
          "name": "",
          "type": "string"
        }
      ],
      "stateMutability": "view",
      "type": "function"
    },
    {
      "inputs": [
        {
          "internalType": "uint256",
          "name": "tokenId",
          "type": "uint256"
        }
      ],
      "name": "ownerOf",
      "outputs": [
        {
          "internalType": "address",
          "name": "",
          "type": "address"
        }
      ],
      "stateMutability": "view",
      "type": "function"
    },
    {
      "inputs": [
        {
          "internalType": "address",
          "name": "from",
          "type": "address"
        },
        {
          "internalType": "address",
          "name": "to",
          "type": "address"
        },
        {
          "internalType": "uint256",
          "name": "tokenId",
          "type": "uint256"
        }
      ],
      "name": "safeTransferFrom",
      "outputs": [],
      "stateMutability": "nonpayable",
      "type": "function"
    },
    {
      "inputs": [
        {
          "internalType": "address",
          "name": "from",
          "type": "address"
        },
        {
          "internalType": "address",
          "name": "to",
          "type": "address"
        },
        {
          "internalType": "uint256",
          "name": "tokenId",
          "type": "uint256"
        },
        {
          "internalType": "bytes",
          "name": "data",
          "type": "bytes"
        }
      ],
      "name": "safeTransferFrom",
      "outputs": [],
      "stateMutability": "nonpayable",
      "type": "function"
    },
    {
      "inputs": [
        {
          "internalType": "address",
          "name": "operator",
          "type": "address"
        },
        {
          "internalType": "bool",
          "name": "approved",
          "type": "bool"
        }
      ],
      "name": "setApprovalForAll",
      "outputs": [],
      "stateMutability": "nonpayable",
      "type": "function"
    },
    {
      "inputs": [
        {
          "internalType": "bytes4",
          "name": "interfaceId",
          "type": "bytes4"
        }
      ],
      "name": "supportsInterface",
      "outputs": [
        {
          "internalType": "bool",
          "name": "",
          "type": "bool"
        }
      ],
      "stateMutability": "view",
      "type": "function"
    },
    {
      "inputs": [],
      "name": "symbol",
      "outputs": [
        {
          "internalType": "string",
          "name": "",
          "type": "string"
        }
      ],
      "stateMutability": "view",
      "type": "function"
    },
    {
      "inputs": [
        {
          "internalType": "uint256",
          "name": "tokenId",
          "type": "uint256"
        }
      ],
      "name": "tokenURI",
      "outputs": [
        {
          "internalType": "string",
          "name": "",
          "type": "string"
        }
      ],
      "stateMutability": "view",
      "type": "function"
    },
    {
      "inputs": [
        {
          "internalType": "address",
          "name": "from",
          "type": "address"
        },
        {
          "internalType": "address",
          "name": "to",
          "type": "address"
        },
        {
          "internalType": "uint256",
          "name": "tokenId",
          "type": "uint256"
        }
      ],
      "name": "transferFrom",
      "outputs": [],
      "stateMutability": "nonpayable",
      "type": "function"
    }
  ],
  "bytecode": "0x60806040523480156200001157600080fd5b506040518060400160405280600581526020017f446f6769650000000000000000000000000000000000000000000000000000008152506040518060400160405280600381526020017f444f47000000000000000000000000000000000000000000000000000000000081525081600090816200008f91906200032c565b508060019081620000a191906200032c565b505050600060068190555062000413565b600081519050919050565b7f4e487b7100000000000000000000000000000000000000000000000000000000600052604160045260246000fd5b7f4e487b7100000000000000000000000000000000000000000000000000000000600052602260045260246000fd5b600060028204905060018216806200013457607f821691505b6020821081036200014a5762000149620000ec565b5b50919050565b60008190508160005260206000209050919050565b60006020601f8301049050919050565b600082821b905092915050565b600060088302620001b47fffffffffffffffffffffffffffffffffffffffffffffffffffffffffffffffff8262000175565b620001c0868362000175565b95508019841693508086168417925050509392505050565b6000819050919050565b6000819050919050565b60006200020d620002076200020184620001d8565b620001e2565b620001d8565b9050919050565b6000819050919050565b6200022983620001ec565b62000241620002388262000214565b84845462000182565b825550505050565b600090565b6200025862000249565b620002658184846200021e565b505050565b5b818110156200028d57620002816000826200024e565b6001810190506200026b565b5050565b601f821115620002dc57620002a68162000150565b620002b18462000165565b81016020851015620002c1578190505b620002d9620002d08562000165565b8301826200026a565b50505b505050565b600082821c905092915050565b60006200030160001984600802620002e1565b1980831691505092915050565b60006200031c8383620002ee565b9150826002028217905092915050565b6200033782620000b2565b67ffffffffffffffff811115620003535762000352620000bd565b5b6200035f82546200011b565b6200036c82828562000291565b600060209050601f831160018114620003a457600084156200038f578287015190505b6200039b85826200030e565b8655506200040b565b601f198416620003b48662000150565b60005b82811015620003de57848901518255600182019150602085019450602081019050620003b7565b86831015620003fe5784890151620003fa601f891682620002ee565b8355505b6001600288020188555050505b505050505050565b6122fb80620004236000396000f3fe608060405234801561001057600080fd5b50600436106101005760003560e01c806370a0823111610097578063b88d4fde11610066578063b88d4fde146102ad578063c2229fea146102c9578063c87b56dd146102d3578063e985e9c51461030357610100565b806370a082311461022557806378ce90351461025557806395d89b4114610273578063a22cb4651461029157610100565b806323b872dd116100d357806323b872dd1461019f57806342842e0e146101bb5780636352211e146101d75780636e02007d1461020757610100565b806301ffc9a71461010557806306fdde0314610135578063081812fc14610153578063095ea7b314610183575b600080fd5b61011f600480360381019061011a91906115cc565b610333565b60405161012c9190611614565b60405180910390f35b61013d610415565b60405161014a91906116bf565b60405180910390f35b61016d60048036038101906101689190611717565b6104a7565b60405161017a9190611785565b60405180910390f35b61019d600480360381019061019891906117cc565b6104ed565b005b6101b960048036038101906101b4919061180c565b610604565b005b6101d560048036038101906101d0919061180c565b610664565b005b6101f160048036038101906101ec9190611717565b610684565b6040516101fe9190611785565b60405180910390f35b61020f61070a565b60405161021c919061186e565b60405180910390f35b61023f600480360381019061023a9190611889565b610714565b60405161024c919061186e565b60405180910390f35b61025d6107cb565b60405161026a91906116bf565b60405180910390f35b61027b6107e7565b60405161028891906116bf565b60405180910390f35b6102ab60048036038101906102a691906118e2565b610879565b005b6102c760048036038101906102c29190611a57565b61088f565b005b6102d16108f1565b005b6102ed60048036038101906102e89190611717565b610914565b6040516102fa91906116bf565b60405180910390f35b61031d60048036038101906103189190611ada565b610936565b60405161032a9190611614565b60405180910390f35b60007f80ac58cd000000000000000000000000000000000000000000000000000000007bffffffffffffffffffffffffffffffffffffffffffffffffffffffff1916827bffffffffffffffffffffffffffffffffffffffffffffffffffffffff191614806103fe57507f5b5e139f000000000000000000000000000000000000000000000000000000007bffffffffffffffffffffffffffffffffffffffffffffffffffffffff1916827bffffffffffffffffffffffffffffffffffffffffffffffffffffffff1916145b8061040e575061040d826109ca565b5b9050919050565b60606000805461042490611b49565b80601f016020809104026020016040519081016040528092919081815260200182805461045090611b49565b801561049d5780601f106104725761010080835404028352916020019161049d565b820191906000526020600020905b81548152906001019060200180831161048057829003601f168201915b5050505050905090565b60006104b282610a34565b6004600083815260200190815260200160002060009054906101000a900473ffffffffffffffffffffffffffffffffffffffff169050919050565b60006104f882610684565b90508073ffffffffffffffffffffffffffffffffffffffff168373ffffffffffffffffffffffffffffffffffffffff1603610568576040517f08c379a000000000000000000000000000000000000000000000000000000000815260040161055f90611bec565b60405180910390fd5b8073ffffffffffffffffffffffffffffffffffffffff16610587610a7f565b73ffffffffffffffffffffffffffffffffffffffff1614806105b657506105b5816105b0610a7f565b610936565b5b6105f5576040517f08c379a00000000000000000000000000000000000000000000000000000000081526004016105ec90611c7e565b60405180910390fd5b6105ff8383610a87565b505050565b61061561060f610a7f565b82610b40565b610654576040517f08c379a000000000000000000000000000000000000000000000000000000000815260040161064b90611d10565b60405180910390fd5b61065f838383610bd5565b505050565b61067f8383836040518060200160405280600081525061088f565b505050565b60008061069083610ece565b9050600073ffffffffffffffffffffffffffffffffffffffff168173ffffffffffffffffffffffffffffffffffffffff1603610701576040517f08c379a00000000000000000000000000000000000000000000000000000000081526004016106f890611d7c565b60405180910390fd5b80915050919050565b6000600654905090565b60008073ffffffffffffffffffffffffffffffffffffffff168273ffffffffffffffffffffffffffffffffffffffff1603610784576040517f08c379a000000000000000000000000000000000000000000000000000000000815260040161077b90611e0e565b60405180910390fd5b600360008373ffffffffffffffffffffffffffffffffffffffff1673ffffffffffffffffffffffffffffffffffffffff168152602001908152602001600020549050919050565b60405180608001604052806057815260200161226f6057913981565b6060600180546107f690611b49565b80601f016020809104026020016040519081016040528092919081815260200182805461082290611b49565b801561086f5780601f106108445761010080835404028352916020019161086f565b820191906000526020600020905b81548152906001019060200180831161085257829003601f168201915b5050505050905090565b61088b610884610a7f565b8383610f0b565b5050565b6108a061089a610a7f565b83610b40565b6108df576040517f08c379a00000000000000000000000000000000000000000000000000000000081526004016108d690611d10565b60405180910390fd5b6108eb84848484611077565b50505050565b6108fd336006546110d3565b600160065461090c9190611e5d565b600681905550565b606060405180608001604052806057815260200161226f605791399050919050565b6000600560008473ffffffffffffffffffffffffffffffffffffffff1673ffffffffffffffffffffffffffffffffffffffff16815260200190815260200160002060008373ffffffffffffffffffffffffffffffffffffffff1673ffffffffffffffffffffffffffffffffffffffff16815260200190815260200160002060009054906101000a900460ff16905092915050565b60007f01ffc9a7000000000000000000000000000000000000000000000000000000007bffffffffffffffffffffffffffffffffffffffffffffffffffffffff1916827bffffffffffffffffffffffffffffffffffffffffffffffffffffffff1916149050919050565b610a3d816110f1565b610a7c576040517f08c379a0000000000000000000000000000000000000000000000000000000008152600401610a7390611d7c565b60405180910390fd5b50565b600033905090565b816004600083815260200190815260200160002060006101000a81548173ffffffffffffffffffffffffffffffffffffffff021916908373ffffffffffffffffffffffffffffffffffffffff160217905550808273ffffffffffffffffffffffffffffffffffffffff16610afa83610684565b73ffffffffffffffffffffffffffffffffffffffff167f8c5be1e5ebec7d5bd14f71427d1e84f3dd0314c0f7b2291e5b200ac8c7c3b92560405160405180910390a45050565b600080610b4c83610684565b90508073ffffffffffffffffffffffffffffffffffffffff168473ffffffffffffffffffffffffffffffffffffffff161480610b8e5750610b8d8185610936565b5b80610bcc57508373ffffffffffffffffffffffffffffffffffffffff16610bb4846104a7565b73ffffffffffffffffffffffffffffffffffffffff16145b91505092915050565b8273ffffffffffffffffffffffffffffffffffffffff16610bf582610684565b73ffffffffffffffffffffffffffffffffffffffff1614610c4b576040517f08c379a0000000000000000000000000000000000000000000000000000000008152600401610c4290611f03565b60405180910390fd5b600073ffffffffffffffffffffffffffffffffffffffff168273ffffffffffffffffffffffffffffffffffffffff1603610cba576040517f08c379a0000000000000000000000000000000000000000000000000000000008152600401610cb190611f95565b60405180910390fd5b610cc78383836001611132565b8273ffffffffffffffffffffffffffffffffffffffff16610ce782610684565b73ffffffffffffffffffffffffffffffffffffffff1614610d3d576040517f08c379a0000000000000000000000000000000000000000000000000000000008152600401610d3490611f03565b60405180910390fd5b6004600082815260200190815260200160002060006101000a81549073ffffffffffffffffffffffffffffffffffffffff02191690556001600360008573ffffffffffffffffffffffffffffffffffffffff1673ffffffffffffffffffffffffffffffffffffffff168152602001908152602001600020600082825403925050819055506001600360008473ffffffffffffffffffffffffffffffffffffffff1673ffffffffffffffffffffffffffffffffffffffff16815260200190815260200160002060008282540192505081905550816002600083815260200190815260200160002060006101000a81548173ffffffffffffffffffffffffffffffffffffffff021916908373ffffffffffffffffffffffffffffffffffffffff160217905550808273ffffffffffffffffffffffffffffffffffffffff168473ffffffffffffffffffffffffffffffffffffffff167fddf252ad1be2c89b69c2b068fc378daa952ba7f163c4a11628f55a4df523b3ef60405160405180910390a4610ec98383836001611138565b505050565b60006002600083815260200190815260200160002060009054906101000a900473ffffffffffffffffffffffffffffffffffffffff169050919050565b8173ffffffffffffffffffffffffffffffffffffffff168373ffffffffffffffffffffffffffffffffffffffff1603610f79576040517f08c379a0000000000000000000000000000000000000000000000000000000008152600401610f7090612001565b60405180910390fd5b80600560008573ffffffffffffffffffffffffffffffffffffffff1673ffffffffffffffffffffffffffffffffffffffff16815260200190815260200160002060008473ffffffffffffffffffffffffffffffffffffffff1673ffffffffffffffffffffffffffffffffffffffff16815260200190815260200160002060006101000a81548160ff0219169083151502179055508173ffffffffffffffffffffffffffffffffffffffff168373ffffffffffffffffffffffffffffffffffffffff167f17307eab39ab6107e8899845ad3d59bd9653f200f220920489ca2b5937696c318360405161106a9190611614565b60405180910390a3505050565b611082848484610bd5565b61108e8484848461113e565b6110cd576040517f08c379a00000000000000000000000000000000000000000000000000000000081526004016110c490612093565b60405180910390fd5b50505050565b6110ed8282604051806020016040528060008152506112c5565b5050565b60008073ffffffffffffffffffffffffffffffffffffffff1661111383610ece565b73ffffffffffffffffffffffffffffffffffffffff1614159050919050565b50505050565b50505050565b600061115f8473ffffffffffffffffffffffffffffffffffffffff16611320565b156112b8578373ffffffffffffffffffffffffffffffffffffffff1663150b7a02611188610a7f565b8786866040518563ffffffff1660e01b81526004016111aa9493929190612108565b6020604051808303816000875af19250505080156111e657506040513d601f19601f820116820180604052508101906111e39190612169565b60015b611268573d8060008114611216576040519150601f19603f3d011682016040523d82523d6000602084013e61121b565b606091505b506000815103611260576040517f08c379a000000000000000000000000000000000000000000000000000000000815260040161125790612093565b60405180910390fd5b805181602001fd5b63150b7a0260e01b7bffffffffffffffffffffffffffffffffffffffffffffffffffffffff1916817bffffffffffffffffffffffffffffffffffffffffffffffffffffffff1916149150506112bd565b600190505b949350505050565b6112cf8383611343565b6112dc600084848461113e565b61131b576040517f08c379a000000000000000000000000000000000000000000000000000000000815260040161131290612093565b60405180910390fd5b505050565b6000808273ffffffffffffffffffffffffffffffffffffffff163b119050919050565b600073ffffffffffffffffffffffffffffffffffffffff168273ffffffffffffffffffffffffffffffffffffffff16036113b2576040517f08c379a00000000000000000000000000000000000000000000000000000000081526004016113a9906121e2565b60405180910390fd5b6113bb816110f1565b156113fb576040517f08c379a00000000000000000000000000000000000000000000000000000000081526004016113f29061224e565b60405180910390fd5b611409600083836001611132565b611412816110f1565b15611452576040517f08c379a00000000000000000000000000000000000000000000000000000000081526004016114499061224e565b60405180910390fd5b6001600360008473ffffffffffffffffffffffffffffffffffffffff1673ffffffffffffffffffffffffffffffffffffffff16815260200190815260200160002060008282540192505081905550816002600083815260200190815260200160002060006101000a81548173ffffffffffffffffffffffffffffffffffffffff021916908373ffffffffffffffffffffffffffffffffffffffff160217905550808273ffffffffffffffffffffffffffffffffffffffff16600073ffffffffffffffffffffffffffffffffffffffff167fddf252ad1be2c89b69c2b068fc378daa952ba7f163c4a11628f55a4df523b3ef60405160405180910390a461155c600083836001611138565b5050565b6000604051905090565b600080fd5b600080fd5b60007fffffffff0000000000000000000000000000000000000000000000000000000082169050919050565b6115a981611574565b81146115b457600080fd5b50565b6000813590506115c6816115a0565b92915050565b6000602082840312156115e2576115e161156a565b5b60006115f0848285016115b7565b91505092915050565b60008115159050919050565b61160e816115f9565b82525050565b60006020820190506116296000830184611605565b92915050565b600081519050919050565b600082825260208201905092915050565b60005b8381101561166957808201518184015260208101905061164e565b60008484015250505050565b6000601f19601f8301169050919050565b60006116918261162f565b61169b818561163a565b93506116ab81856020860161164b565b6116b481611675565b840191505092915050565b600060208201905081810360008301526116d98184611686565b905092915050565b6000819050919050565b6116f4816116e1565b81146116ff57600080fd5b50565b600081359050611711816116eb565b92915050565b60006020828403121561172d5761172c61156a565b5b600061173b84828501611702565b91505092915050565b600073ffffffffffffffffffffffffffffffffffffffff82169050919050565b600061176f82611744565b9050919050565b61177f81611764565b82525050565b600060208201905061179a6000830184611776565b92915050565b6117a981611764565b81146117b457600080fd5b50565b6000813590506117c6816117a0565b92915050565b600080604083850312156117e3576117e261156a565b5b60006117f1858286016117b7565b925050602061180285828601611702565b9150509250929050565b6000806000606084860312156118255761182461156a565b5b6000611833868287016117b7565b9350506020611844868287016117b7565b925050604061185586828701611702565b9150509250925092565b611868816116e1565b82525050565b6000602082019050611883600083018461185f565b92915050565b60006020828403121561189f5761189e61156a565b5b60006118ad848285016117b7565b91505092915050565b6118bf816115f9565b81146118ca57600080fd5b50565b6000813590506118dc816118b6565b92915050565b600080604083850312156118f9576118f861156a565b5b6000611907858286016117b7565b9250506020611918858286016118cd565b9150509250929050565b600080fd5b600080fd5b7f4e487b7100000000000000000000000000000000000000000000000000000000600052604160045260246000fd5b61196482611675565b810181811067ffffffffffffffff821117156119835761198261192c565b5b80604052505050565b6000611996611560565b90506119a2828261195b565b919050565b600067ffffffffffffffff8211156119c2576119c161192c565b5b6119cb82611675565b9050602081019050919050565b82818337600083830152505050565b60006119fa6119f5846119a7565b61198c565b905082815260208101848484011115611a1657611a15611927565b5b611a218482856119d8565b509392505050565b600082601f830112611a3e57611a3d611922565b5b8135611a4e8482602086016119e7565b91505092915050565b60008060008060808587031215611a7157611a7061156a565b5b6000611a7f878288016117b7565b9450506020611a90878288016117b7565b9350506040611aa187828801611702565b925050606085013567ffffffffffffffff811115611ac257611ac161156f565b5b611ace87828801611a29565b91505092959194509250565b60008060408385031215611af157611af061156a565b5b6000611aff858286016117b7565b9250506020611b10858286016117b7565b9150509250929050565b7f4e487b7100000000000000000000000000000000000000000000000000000000600052602260045260246000fd5b60006002820490506001821680611b6157607f821691505b602082108103611b7457611b73611b1a565b5b50919050565b7f4552433732313a20617070726f76616c20746f2063757272656e74206f776e6560008201527f7200000000000000000000000000000000000000000000000000000000000000602082015250565b6000611bd660218361163a565b9150611be182611b7a565b604082019050919050565b60006020820190508181036000830152611c0581611bc9565b9050919050565b7f4552433732313a20617070726f76652063616c6c6572206973206e6f7420746f60008201527f6b656e206f776e6572206f7220617070726f76656420666f7220616c6c000000602082015250565b6000611c68603d8361163a565b9150611c7382611c0c565b604082019050919050565b60006020820190508181036000830152611c9781611c5b565b9050919050565b7f4552433732313a2063616c6c6572206973206e6f7420746f6b656e206f776e6560008201527f72206f7220617070726f76656400000000000000000000000000000000000000602082015250565b6000611cfa602d8361163a565b9150611d0582611c9e565b604082019050919050565b60006020820190508181036000830152611d2981611ced565b9050919050565b7f4552433732313a20696e76616c696420746f6b656e2049440000000000000000600082015250565b6000611d6660188361163a565b9150611d7182611d30565b602082019050919050565b60006020820190508181036000830152611d9581611d59565b9050919050565b7f4552433732313a2061646472657373207a65726f206973206e6f74206120766160008201527f6c6964206f776e65720000000000000000000000000000000000000000000000602082015250565b6000611df860298361163a565b9150611e0382611d9c565b604082019050919050565b60006020820190508181036000830152611e2781611deb565b9050919050565b7f4e487b7100000000000000000000000000000000000000000000000000000000600052601160045260246000fd5b6000611e68826116e1565b9150611e73836116e1565b9250828201905080821115611e8b57611e8a611e2e565b5b92915050565b7f4552433732313a207472616e736665722066726f6d20696e636f72726563742060008201527f6f776e6572000000000000000000000000000000000000000000000000000000602082015250565b6000611eed60258361163a565b9150611ef882611e91565b604082019050919050565b60006020820190508181036000830152611f1c81611ee0565b9050919050565b7f4552433732313a207472616e7366657220746f20746865207a65726f2061646460008201527f7265737300000000000000000000000000000000000000000000000000000000602082015250565b6000611f7f60248361163a565b9150611f8a82611f23565b604082019050919050565b60006020820190508181036000830152611fae81611f72565b9050919050565b7f4552433732313a20617070726f766520746f2063616c6c657200000000000000600082015250565b6000611feb60198361163a565b9150611ff682611fb5565b602082019050919050565b6000602082019050818103600083015261201a81611fde565b9050919050565b7f4552433732313a207472616e7366657220746f206e6f6e20455243373231526560008201527f63656976657220696d706c656d656e7465720000000000000000000000000000602082015250565b600061207d60328361163a565b915061208882612021565b604082019050919050565b600060208201905081810360008301526120ac81612070565b9050919050565b600081519050919050565b600082825260208201905092915050565b60006120da826120b3565b6120e481856120be565b93506120f481856020860161164b565b6120fd81611675565b840191505092915050565b600060808201905061211d6000830187611776565b61212a6020830186611776565b612137604083018561185f565b818103606083015261214981846120cf565b905095945050505050565b600081519050612163816115a0565b92915050565b60006020828403121561217f5761217e61156a565b5b600061218d84828501612154565b91505092915050565b7f4552433732313a206d696e7420746f20746865207a65726f2061646472657373600082015250565b60006121cc60208361163a565b91506121d782612196565b602082019050919050565b600060208201905081810360008301526121fb816121bf565b9050919050565b7f4552433732313a20746f6b656e20616c7265616479206d696e74656400000000600082015250565b6000612238601c8361163a565b915061224382612202565b602082019050919050565b600060208201905081810360008301526122678161222b565b905091905056fe697066733a2f2f62616679626569673337696f6972373673376d67356f6f6265746e636f6a636d3363336878617379643472766964346a71687934676b61686567342f3f66696c656e616d653d302d5055472e6a736f6ea2646970667358221220b4c3c868ced2121f3ab6d0d5933224aa49b0ce6c5cc410c454a91f3e0479554864736f6c63430008140033",
  "linkReferences": {},
  "deployedLinkReferences": {}
}