{
  "_format": "hh-sol-artifact-1",
  "contractName": "DynamicSvgNft",
  "sourceName": "contracts/DynamicSvgNft.sol",
  "abi": [
    {
      "inputs": [
        {
          "internalType": "address",
          "name": "priceFeedAddress",
          "type": "address"
        },
        {
          "internalType": "string",
          "name": "lowSvg",
          "type": "string"
        },
        {
          "internalType": "string",
          "name": "highSvg",
          "type": "string"
        }
      ],
      "stateMutability": "nonpayable",
      "type": "constructor"
    },
    {
      "inputs": [],
      "name": "ERC721Metadata__URI_QueryFor_NonExistentToken",
      "type": "error"
    },
    {
      "anonymous": false,
      "inputs": [
        {
          "indexed": true,
          "internalType": "address",
          "name": "owner",
          "type": "address"
        },
        {
          "indexed": true,
          "internalType": "address",
          "name": "approved",
          "type": "address"
        },
        {
          "indexed": true,
          "internalType": "uint256",
          "name": "tokenId",
          "type": "uint256"
        }
      ],
      "name": "Approval",
      "type": "event"
    },
    {
      "anonymous": false,
      "inputs": [
        {
          "indexed": true,
          "internalType": "address",
          "name": "owner",
          "type": "address"
        },
        {
          "indexed": true,
          "internalType": "address",
          "name": "operator",
          "type": "address"
        },
        {
          "indexed": false,
          "internalType": "bool",
          "name": "approved",
          "type": "bool"
        }
      ],
      "name": "ApprovalForAll",
      "type": "event"
    },
    {
      "anonymous": false,
      "inputs": [
        {
          "indexed": true,
          "internalType": "uint256",
          "name": "tokenId",
          "type": "uint256"
        },
        {
          "indexed": false,
          "internalType": "int256",
          "name": "highValue",
          "type": "int256"
        }
      ],
      "name": "CreatedNFT",
      "type": "event"
    },
    {
      "anonymous": false,
      "inputs": [
        {
          "indexed": true,
          "internalType": "address",
          "name": "previousOwner",
          "type": "address"
        },
        {
          "indexed": true,
          "internalType": "address",
          "name": "newOwner",
          "type": "address"
        }
      ],
      "name": "OwnershipTransferred",
      "type": "event"
    },
    {
      "anonymous": false,
      "inputs": [
        {
          "indexed": true,
          "internalType": "address",
          "name": "from",
          "type": "address"
        },
        {
          "indexed": true,
          "internalType": "address",
          "name": "to",
          "type": "address"
        },
        {
          "indexed": true,
          "internalType": "uint256",
          "name": "tokenId",
          "type": "uint256"
        }
      ],
      "name": "Transfer",
      "type": "event"
    },
    {
      "inputs": [
        {
          "internalType": "address",
          "name": "to",
          "type": "address"
        },
        {
          "internalType": "uint256",
          "name": "tokenId",
          "type": "uint256"
        }
      ],
      "name": "approve",
      "outputs": [],
      "stateMutability": "nonpayable",
      "type": "function"
    },
    {
      "inputs": [
        {
          "internalType": "address",
          "name": "owner",
          "type": "address"
        }
      ],
      "name": "balanceOf",
      "outputs": [
        {
          "internalType": "uint256",
          "name": "",
          "type": "uint256"
        }
      ],
      "stateMutability": "view",
      "type": "function"
    },
    {
      "inputs": [
        {
          "internalType": "uint256",
          "name": "tokenId",
          "type": "uint256"
        }
      ],
      "name": "getApproved",
      "outputs": [
        {
          "internalType": "address",
          "name": "",
          "type": "address"
        }
      ],
      "stateMutability": "view",
      "type": "function"
    },
    {
      "inputs": [],
      "name": "getHighSVG",
      "outputs": [
        {
          "internalType": "string",
          "name": "",
          "type": "string"
        }
      ],
      "stateMutability": "view",
      "type": "function"
    },
    {
      "inputs": [],
      "name": "getLowSVG",
      "outputs": [
        {
          "internalType": "string",
          "name": "",
          "type": "string"
        }
      ],
      "stateMutability": "view",
      "type": "function"
    },
    {
      "inputs": [],
      "name": "getPriceFeed",
      "outputs": [
        {
          "internalType": "contract AggregatorV3Interface",
          "name": "",
          "type": "address"
        }
      ],
      "stateMutability": "view",
      "type": "function"
    },
    {
      "inputs": [],
      "name": "getTokenCounter",
      "outputs": [
        {
          "internalType": "uint256",
          "name": "",
          "type": "uint256"
        }
      ],
      "stateMutability": "view",
      "type": "function"
    },
    {
      "inputs": [
        {
          "internalType": "address",
          "name": "owner",
          "type": "address"
        },
        {
          "internalType": "address",
          "name": "operator",
          "type": "address"
        }
      ],
      "name": "isApprovedForAll",
      "outputs": [
        {
          "internalType": "bool",
          "name": "",
          "type": "bool"
        }
      ],
      "stateMutability": "view",
      "type": "function"
    },
    {
      "inputs": [
        {
          "internalType": "int256",
          "name": "highValue",
          "type": "int256"
        }
      ],
      "name": "mintNft",
      "outputs": [],
      "stateMutability": "nonpayable",
      "type": "function"
    },
    {
      "inputs": [],
      "name": "name",
      "outputs": [
        {
          "internalType": "string",
          "name": "",
          "type": "string"
        }
      ],
      "stateMutability": "view",
      "type": "function"
    },
    {
      "inputs": [],
      "name": "owner",
      "outputs": [
        {
          "internalType": "address",
          "name": "",
          "type": "address"
        }
      ],
      "stateMutability": "view",
      "type": "function"
    },
    {
      "inputs": [
        {
          "internalType": "uint256",
          "name": "tokenId",
          "type": "uint256"
        }
      ],
      "name": "ownerOf",
      "outputs": [
        {
          "internalType": "address",
          "name": "",
          "type": "address"
        }
      ],
      "stateMutability": "view",
      "type": "function"
    },
    {
      "inputs": [],
      "name": "renounceOwnership",
      "outputs": [],
      "stateMutability": "nonpayable",
      "type": "function"
    },
    {
      "inputs": [
        {
          "internalType": "address",
          "name": "from",
          "type": "address"
        },
        {
          "internalType": "address",
          "name": "to",
          "type": "address"
        },
        {
          "internalType": "uint256",
          "name": "tokenId",
          "type": "uint256"
        }
      ],
      "name": "safeTransferFrom",
      "outputs": [],
      "stateMutability": "nonpayable",
      "type": "function"
    },
    {
      "inputs": [
        {
          "internalType": "address",
          "name": "from",
          "type": "address"
        },
        {
          "internalType": "address",
          "name": "to",
          "type": "address"
        },
        {
          "internalType": "uint256",
          "name": "tokenId",
          "type": "uint256"
        },
        {
          "internalType": "bytes",
          "name": "data",
          "type": "bytes"
        }
      ],
      "name": "safeTransferFrom",
      "outputs": [],
      "stateMutability": "nonpayable",
      "type": "function"
    },
    {
      "inputs": [
        {
          "internalType": "address",
          "name": "operator",
          "type": "address"
        },
        {
          "internalType": "bool",
          "name": "approved",
          "type": "bool"
        }
      ],
      "name": "setApprovalForAll",
      "outputs": [],
      "stateMutability": "nonpayable",
      "type": "function"
    },
    {
      "inputs": [
        {
          "internalType": "bytes4",
          "name": "interfaceId",
          "type": "bytes4"
        }
      ],
      "name": "supportsInterface",
      "outputs": [
        {
          "internalType": "bool",
          "name": "",
          "type": "bool"
        }
      ],
      "stateMutability": "view",
      "type": "function"
    },
    {
      "inputs": [
        {
          "internalType": "string",
          "name": "svg",
          "type": "string"
        }
      ],
      "name": "svgToImageURI",
      "outputs": [
        {
          "internalType": "string",
          "name": "",
          "type": "string"
        }
      ],
      "stateMutability": "pure",
      "type": "function"
    },
    {
      "inputs": [],
      "name": "symbol",
      "outputs": [
        {
          "internalType": "string",
          "name": "",
          "type": "string"
        }
      ],
      "stateMutability": "view",
      "type": "function"
    },
    {
      "inputs": [
        {
          "internalType": "uint256",
          "name": "tokenId",
          "type": "uint256"
        }
      ],
      "name": "tokenURI",
      "outputs": [
        {
          "internalType": "string",
          "name": "",
          "type": "string"
        }
      ],
      "stateMutability": "view",
      "type": "function"
    },
    {
      "inputs": [
        {
          "internalType": "address",
          "name": "from",
          "type": "address"
        },
        {
          "internalType": "address",
          "name": "to",
          "type": "address"
        },
        {
          "internalType": "uint256",
          "name": "tokenId",
          "type": "uint256"
        }
      ],
      "name": "transferFrom",
      "outputs": [],
      "stateMutability": "nonpayable",
      "type": "function"
    },
    {
      "inputs": [
        {
          "internalType": "address",
          "name": "newOwner",
          "type": "address"
        }
      ],
      "name": "transferOwnership",
      "outputs": [],
      "stateMutability": "nonpayable",
      "type": "function"
    }
  ],
  "bytecode": "0x60a06040523480156200001157600080fd5b5060405162003f4438038062003f44833981810160405281019062000037919062000664565b6040518060400160405280600f81526020017f44796e616d696320535647204e465400000000000000000000000000000000008152506040518060400160405280600381526020017f44534e00000000000000000000000000000000000000000000000000000000008152508160009081620000b4919062000949565b508060019081620000c6919062000949565b505050620000e9620000dd6200017260201b60201c565b6200017a60201b60201c565b60006007819055508273ffffffffffffffffffffffffffffffffffffffff1660808173ffffffffffffffffffffffffffffffffffffffff168152505062000136826200024060201b60201c565b6008908162000146919062000949565b5062000158816200024060201b60201c565b6009908162000168919062000949565b5050505062000bcf565b600033905090565b6000600660009054906101000a900473ffffffffffffffffffffffffffffffffffffffff16905081600660006101000a81548173ffffffffffffffffffffffffffffffffffffffff021916908373ffffffffffffffffffffffffffffffffffffffff1602179055508173ffffffffffffffffffffffffffffffffffffffff168173ffffffffffffffffffffffffffffffffffffffff167f8be0079c531659141344cd1fd0a4f28419497f9722a3daafe3b4186f6b6457e060405160405180910390a35050565b606060006040518060400160405280601a81526020017f646174613a696d6167652f7376672b786d6c3b6261736536342c00000000000081525090506000620002b08460405160200162000295919062000a72565b604051602081830303815290604052620002df60201b60201c565b90508181604051602001620002c792919062000a8b565b60405160208183030381529060405292505050919050565b60606000825103620003035760405180602001604052806000815250905062000467565b600060405180606001604052806040815260200162003f04604091399050600060036002855162000335919062000ae2565b62000341919062000b4c565b60046200034f919062000b84565b9050600060208262000362919062000ae2565b67ffffffffffffffff8111156200037e576200037d62000500565b5b6040519080825280601f01601f191660200182016040528015620003b15781602001600182028036833780820191505090505b509050818152600183018586518101602084015b8183101562000422576003830192508251603f8160121c168501518253600182019150603f81600c1c168501518253600182019150603f8160061c168501518253600182019150603f8116850151825360018201915050620003c5565b6003895106600181146200043f576002811462000450576200045b565b613d3d60f01b60028303526200045b565b603d60f81b60018303525b50505050508093505050505b919050565b6000604051905090565b600080fd5b600080fd5b600073ffffffffffffffffffffffffffffffffffffffff82169050919050565b6000620004ad8262000480565b9050919050565b620004bf81620004a0565b8114620004cb57600080fd5b50565b600081519050620004df81620004b4565b92915050565b600080fd5b600080fd5b6000601f19601f8301169050919050565b7f4e487b7100000000000000000000000000000000000000000000000000000000600052604160045260246000fd5b6200053a82620004ef565b810181811067ffffffffffffffff821117156200055c576200055b62000500565b5b80604052505050565b6000620005716200046c565b90506200057f82826200052f565b919050565b600067ffffffffffffffff821115620005a257620005a162000500565b5b620005ad82620004ef565b9050602081019050919050565b60005b83811015620005da578082015181840152602081019050620005bd565b60008484015250505050565b6000620005fd620005f78462000584565b62000565565b9050828152602081018484840111156200061c576200061b620004ea565b5b62000629848285620005ba565b509392505050565b600082601f830112620006495762000648620004e5565b5b81516200065b848260208601620005e6565b91505092915050565b60008060006060848603121562000680576200067f62000476565b5b60006200069086828701620004ce565b935050602084015167ffffffffffffffff811115620006b457620006b36200047b565b5b620006c28682870162000631565b925050604084015167ffffffffffffffff811115620006e657620006e56200047b565b5b620006f48682870162000631565b9150509250925092565b600081519050919050565b7f4e487b7100000000000000000000000000000000000000000000000000000000600052602260045260246000fd5b600060028204905060018216806200075157607f821691505b60208210810362000767576200076662000709565b5b50919050565b60008190508160005260206000209050919050565b60006020601f8301049050919050565b600082821b905092915050565b600060088302620007d17fffffffffffffffffffffffffffffffffffffffffffffffffffffffffffffffff8262000792565b620007dd868362000792565b95508019841693508086168417925050509392505050565b6000819050919050565b6000819050919050565b60006200082a620008246200081e84620007f5565b620007ff565b620007f5565b9050919050565b6000819050919050565b620008468362000809565b6200085e620008558262000831565b8484546200079f565b825550505050565b600090565b6200087562000866565b620008828184846200083b565b505050565b5b81811015620008aa576200089e6000826200086b565b60018101905062000888565b5050565b601f821115620008f957620008c3816200076d565b620008ce8462000782565b81016020851015620008de578190505b620008f6620008ed8562000782565b83018262000887565b50505b505050565b600082821c905092915050565b60006200091e60001984600802620008fe565b1980831691505092915050565b60006200093983836200090b565b9150826002028217905092915050565b6200095482620006fe565b67ffffffffffffffff81111562000970576200096f62000500565b5b6200097c825462000738565b62000989828285620008ae565b600060209050601f831160018114620009c15760008415620009ac578287015190505b620009b885826200092b565b86555062000a28565b601f198416620009d1866200076d565b60005b82811015620009fb57848901518255600182019150602085019450602081019050620009d4565b8683101562000a1b578489015162000a17601f8916826200090b565b8355505b6001600288020188555050505b505050505050565b600081905092915050565b600062000a4882620006fe565b62000a54818562000a30565b935062000a66818560208601620005ba565b80840191505092915050565b600062000a80828462000a3b565b915081905092915050565b600062000a99828562000a3b565b915062000aa7828462000a3b565b91508190509392505050565b7f4e487b7100000000000000000000000000000000000000000000000000000000600052601160045260246000fd5b600062000aef82620007f5565b915062000afc83620007f5565b925082820190508082111562000b175762000b1662000ab3565b5b92915050565b7f4e487b7100000000000000000000000000000000000000000000000000000000600052601260045260246000fd5b600062000b5982620007f5565b915062000b6683620007f5565b92508262000b795762000b7862000b1d565b5b828204905092915050565b600062000b9182620007f5565b915062000b9e83620007f5565b925082820262000bae81620007f5565b9150828204841483151762000bc85762000bc762000ab3565b5b5092915050565b60805161331262000bf260003960008181610b420152610c2301526133126000f3fe608060405234801561001057600080fd5b50600436106101425760003560e01c8063715018a6116100b8578063a22cb4651161007c578063a22cb46514610365578063b88d4fde14610381578063c87b56dd1461039d578063e985e9c5146103cd578063ed28a122146103fd578063f2fde38b1461041b57610142565b8063715018a6146102e357806376f6056b146102ed5780638da5cb5b1461030b57806395d89b41146103295780639e87a5cd1461034757610142565b806323b872dd1161010a57806323b872dd146101fd57806330d871c61461021957806342842e0e146102495780636352211e146102655780636e02007d1461029557806370a08231146102b357610142565b806301ffc9a71461014757806306fdde0314610177578063081812fc14610195578063095ea7b3146101c55780631e930812146101e1575b600080fd5b610161600480360381019061015c9190611ef3565b610437565b60405161016e9190611f3b565b60405180910390f35b61017f610519565b60405161018c9190611fe6565b60405180910390f35b6101af60048036038101906101aa919061203e565b6105ab565b6040516101bc91906120ac565b60405180910390f35b6101df60048036038101906101da91906120f3565b6105f1565b005b6101fb60048036038101906101f69190612169565b610708565b005b61021760048036038101906102129190612196565b610782565b005b610233600480360381019061022e919061231e565b6107e2565b6040516102409190611fe6565b60405180910390f35b610263600480360381019061025e9190612196565b610875565b005b61027f600480360381019061027a919061203e565b610895565b60405161028c91906120ac565b60405180910390f35b61029d61091b565b6040516102aa9190612376565b60405180910390f35b6102cd60048036038101906102c89190612391565b610925565b6040516102da9190612376565b60405180910390f35b6102eb6109dc565b005b6102f56109f0565b6040516103029190611fe6565b60405180910390f35b610313610a82565b60405161032091906120ac565b60405180910390f35b610331610aac565b60405161033e9190611fe6565b60405180910390f35b61034f610b3e565b60405161035c919061241d565b60405180910390f35b61037f600480360381019061037a9190612464565b610b66565b005b61039b60048036038101906103969190612545565b610b7c565b005b6103b760048036038101906103b2919061203e565b610bde565b6040516103c49190611fe6565b60405180910390f35b6103e760048036038101906103e291906125c8565b610e4f565b6040516103f49190611f3b565b60405180910390f35b610405610ee3565b6040516104129190611fe6565b60405180910390f35b61043560048036038101906104309190612391565b610f75565b005b60007f80ac58cd000000000000000000000000000000000000000000000000000000007bffffffffffffffffffffffffffffffffffffffffffffffffffffffff1916827bffffffffffffffffffffffffffffffffffffffffffffffffffffffff1916148061050257507f5b5e139f000000000000000000000000000000000000000000000000000000007bffffffffffffffffffffffffffffffffffffffffffffffffffffffff1916827bffffffffffffffffffffffffffffffffffffffffffffffffffffffff1916145b80610512575061051182610ff8565b5b9050919050565b60606000805461052890612637565b80601f016020809104026020016040519081016040528092919081815260200182805461055490612637565b80156105a15780601f10610576576101008083540402835291602001916105a1565b820191906000526020600020905b81548152906001019060200180831161058457829003601f168201915b5050505050905090565b60006105b682611062565b6004600083815260200190815260200160002060009054906101000a900473ffffffffffffffffffffffffffffffffffffffff169050919050565b60006105fc82610895565b90508073ffffffffffffffffffffffffffffffffffffffff168373ffffffffffffffffffffffffffffffffffffffff160361066c576040517f08c379a0000000000000000000000000000000000000000000000000000000008152600401610663906126da565b60405180910390fd5b8073ffffffffffffffffffffffffffffffffffffffff1661068b6110ad565b73ffffffffffffffffffffffffffffffffffffffff1614806106ba57506106b9816106b46110ad565b610e4f565b5b6106f9576040517f08c379a00000000000000000000000000000000000000000000000000000000081526004016106f09061276c565b60405180910390fd5b61070383836110b5565b505050565b6000600754905081600a600083815260200190815260200160002081905550610731338261116e565b600160075461074091906127bb565b600781905550807f882d3b5a729a8bb95cf6c0083c99b42ecd9637123d4425bd7b768877fd8af8b08360405161077691906127fe565b60405180910390a25050565b61079361078d6110ad565b8261118c565b6107d2576040517f08c379a00000000000000000000000000000000000000000000000000000000081526004016107c99061288b565b60405180910390fd5b6107dd838383611221565b505050565b606060006040518060400160405280601a81526020017f646174613a696d6167652f7376672b786d6c3b6261736536342c000000000000815250905060006108488460405160200161083491906128e7565b60405160208183030381529060405261151a565b9050818160405160200161085d9291906128fe565b60405160208183030381529060405292505050919050565b61089083838360405180602001604052806000815250610b7c565b505050565b6000806108a183611692565b9050600073ffffffffffffffffffffffffffffffffffffffff168173ffffffffffffffffffffffffffffffffffffffff1603610912576040517f08c379a00000000000000000000000000000000000000000000000000000000081526004016109099061296e565b60405180910390fd5b80915050919050565b6000600754905090565b60008073ffffffffffffffffffffffffffffffffffffffff168273ffffffffffffffffffffffffffffffffffffffff1603610995576040517f08c379a000000000000000000000000000000000000000000000000000000000815260040161098c90612a00565b60405180910390fd5b600360008373ffffffffffffffffffffffffffffffffffffffff1673ffffffffffffffffffffffffffffffffffffffff168152602001908152602001600020549050919050565b6109e46116cf565b6109ee600061174d565b565b6060600980546109ff90612637565b80601f0160208091040260200160405190810160405280929190818152602001828054610a2b90612637565b8015610a785780601f10610a4d57610100808354040283529160200191610a78565b820191906000526020600020905b815481529060010190602001808311610a5b57829003601f168201915b5050505050905090565b6000600660009054906101000a900473ffffffffffffffffffffffffffffffffffffffff16905090565b606060018054610abb90612637565b80601f0160208091040260200160405190810160405280929190818152602001828054610ae790612637565b8015610b345780601f10610b0957610100808354040283529160200191610b34565b820191906000526020600020905b815481529060010190602001808311610b1757829003601f168201915b5050505050905090565b60007f0000000000000000000000000000000000000000000000000000000000000000905090565b610b78610b716110ad565b8383611813565b5050565b610b8d610b876110ad565b8361118c565b610bcc576040517f08c379a0000000000000000000000000000000000000000000000000000000008152600401610bc39061288b565b60405180910390fd5b610bd88484848461197f565b50505050565b6060610be9826119db565b610c1f576040517f6df5edae00000000000000000000000000000000000000000000000000000000815260040160405180910390fd5b60007f000000000000000000000000000000000000000000000000000000000000000073ffffffffffffffffffffffffffffffffffffffff1663feaf968c6040518163ffffffff1660e01b815260040160a060405180830381865afa158015610c8c573d6000803e3d6000fd5b505050506040513d601f19601f82011682018060405250810190610cb09190612a8c565b505050915050600060088054610cc590612637565b80601f0160208091040260200160405190810160405280929190818152602001828054610cf190612637565b8015610d3e5780601f10610d1357610100808354040283529160200191610d3e565b820191906000526020600020905b815481529060010190602001808311610d2157829003601f168201915b50505050509050600a6000858152602001908152602001600020548212610ded5760098054610d6c90612637565b80601f0160208091040260200160405190810160405280929190818152602001828054610d9890612637565b8015610de55780601f10610dba57610100808354040283529160200191610de5565b820191906000526020600020905b815481529060010190602001808311610dc857829003601f168201915b505050505090505b610df5611a1c565b610e26610e00610519565b83604051602001610e12929190612ccf565b60405160208183030381529060405261151a565b604051602001610e379291906128fe565b60405160208183030381529060405292505050919050565b6000600560008473ffffffffffffffffffffffffffffffffffffffff1673ffffffffffffffffffffffffffffffffffffffff16815260200190815260200160002060008373ffffffffffffffffffffffffffffffffffffffff1673ffffffffffffffffffffffffffffffffffffffff16815260200190815260200160002060009054906101000a900460ff16905092915050565b606060088054610ef290612637565b80601f0160208091040260200160405190810160405280929190818152602001828054610f1e90612637565b8015610f6b5780601f10610f4057610100808354040283529160200191610f6b565b820191906000526020600020905b815481529060010190602001808311610f4e57829003601f168201915b5050505050905090565b610f7d6116cf565b600073ffffffffffffffffffffffffffffffffffffffff168173ffffffffffffffffffffffffffffffffffffffff1603610fec576040517f08c379a0000000000000000000000000000000000000000000000000000000008152600401610fe390612d91565b60405180910390fd5b610ff58161174d565b50565b60007f01ffc9a7000000000000000000000000000000000000000000000000000000007bffffffffffffffffffffffffffffffffffffffffffffffffffffffff1916827bffffffffffffffffffffffffffffffffffffffffffffffffffffffff1916149050919050565b61106b816119db565b6110aa576040517f08c379a00000000000000000000000000000000000000000000000000000000081526004016110a19061296e565b60405180910390fd5b50565b600033905090565b816004600083815260200190815260200160002060006101000a81548173ffffffffffffffffffffffffffffffffffffffff021916908373ffffffffffffffffffffffffffffffffffffffff160217905550808273ffffffffffffffffffffffffffffffffffffffff1661112883610895565b73ffffffffffffffffffffffffffffffffffffffff167f8c5be1e5ebec7d5bd14f71427d1e84f3dd0314c0f7b2291e5b200ac8c7c3b92560405160405180910390a45050565b611188828260405180602001604052806000815250611a59565b5050565b60008061119883610895565b90508073ffffffffffffffffffffffffffffffffffffffff168473ffffffffffffffffffffffffffffffffffffffff1614806111da57506111d98185610e4f565b5b8061121857508373ffffffffffffffffffffffffffffffffffffffff16611200846105ab565b73ffffffffffffffffffffffffffffffffffffffff16145b91505092915050565b8273ffffffffffffffffffffffffffffffffffffffff1661124182610895565b73ffffffffffffffffffffffffffffffffffffffff1614611297576040517f08c379a000000000000000000000000000000000000000000000000000000000815260040161128e90612e23565b60405180910390fd5b600073ffffffffffffffffffffffffffffffffffffffff168273ffffffffffffffffffffffffffffffffffffffff1603611306576040517f08c379a00000000000000000000000000000000000000000000000000000000081526004016112fd90612eb5565b60405180910390fd5b6113138383836001611ab4565b8273ffffffffffffffffffffffffffffffffffffffff1661133382610895565b73ffffffffffffffffffffffffffffffffffffffff1614611389576040517f08c379a000000000000000000000000000000000000000000000000000000000815260040161138090612e23565b60405180910390fd5b6004600082815260200190815260200160002060006101000a81549073ffffffffffffffffffffffffffffffffffffffff02191690556001600360008573ffffffffffffffffffffffffffffffffffffffff1673ffffffffffffffffffffffffffffffffffffffff168152602001908152602001600020600082825403925050819055506001600360008473ffffffffffffffffffffffffffffffffffffffff1673ffffffffffffffffffffffffffffffffffffffff16815260200190815260200160002060008282540192505081905550816002600083815260200190815260200160002060006101000a81548173ffffffffffffffffffffffffffffffffffffffff021916908373ffffffffffffffffffffffffffffffffffffffff160217905550808273ffffffffffffffffffffffffffffffffffffffff168473ffffffffffffffffffffffffffffffffffffffff167fddf252ad1be2c89b69c2b068fc378daa952ba7f163c4a11628f55a4df523b3ef60405160405180910390a46115158383836001611aba565b505050565b6060600082510361153c5760405180602001604052806000815250905061168d565b600060405180606001604052806040815260200161329d604091399050600060036002855161156b91906127bb565b6115759190612f04565b60046115819190612f35565b9050600060208261159291906127bb565b67ffffffffffffffff8111156115ab576115aa6121f3565b5b6040519080825280601f01601f1916602001820160405280156115dd5781602001600182028036833780820191505090505b509050818152600183018586518101602084015b8183101561164c576003830192508251603f8160121c168501518253600182019150603f81600c1c168501518253600182019150603f8160061c168501518253600182019150603f81168501518253600182019150506115f1565b600389510660018114611666576002811461167657611681565b613d3d60f01b6002830352611681565b603d60f81b60018303525b50505050508093505050505b919050565b60006002600083815260200190815260200160002060009054906101000a900473ffffffffffffffffffffffffffffffffffffffff169050919050565b6116d76110ad565b73ffffffffffffffffffffffffffffffffffffffff166116f5610a82565b73ffffffffffffffffffffffffffffffffffffffff161461174b576040517f08c379a000000000000000000000000000000000000000000000000000000000815260040161174290612fc3565b60405180910390fd5b565b6000600660009054906101000a900473ffffffffffffffffffffffffffffffffffffffff16905081600660006101000a81548173ffffffffffffffffffffffffffffffffffffffff021916908373ffffffffffffffffffffffffffffffffffffffff1602179055508173ffffffffffffffffffffffffffffffffffffffff168173ffffffffffffffffffffffffffffffffffffffff167f8be0079c531659141344cd1fd0a4f28419497f9722a3daafe3b4186f6b6457e060405160405180910390a35050565b8173ffffffffffffffffffffffffffffffffffffffff168373ffffffffffffffffffffffffffffffffffffffff1603611881576040517f08c379a00000000000000000000000000000000000000000000000000000000081526004016118789061302f565b60405180910390fd5b80600560008573ffffffffffffffffffffffffffffffffffffffff1673ffffffffffffffffffffffffffffffffffffffff16815260200190815260200160002060008473ffffffffffffffffffffffffffffffffffffffff1673ffffffffffffffffffffffffffffffffffffffff16815260200190815260200160002060006101000a81548160ff0219169083151502179055508173ffffffffffffffffffffffffffffffffffffffff168373ffffffffffffffffffffffffffffffffffffffff167f17307eab39ab6107e8899845ad3d59bd9653f200f220920489ca2b5937696c31836040516119729190611f3b565b60405180910390a3505050565b61198a848484611221565b61199684848484611ac0565b6119d5576040517f08c379a00000000000000000000000000000000000000000000000000000000081526004016119cc906130c1565b60405180910390fd5b50505050565b60008073ffffffffffffffffffffffffffffffffffffffff166119fd83611692565b73ffffffffffffffffffffffffffffffffffffffff1614159050919050565b60606040518060400160405280601d81526020017f646174613a6170706c69636174696f6e2f6a736f6e3b6261736536342c000000815250905090565b611a638383611c47565b611a706000848484611ac0565b611aaf576040517f08c379a0000000000000000000000000000000000000000000000000000000008152600401611aa6906130c1565b60405180910390fd5b505050565b50505050565b50505050565b6000611ae18473ffffffffffffffffffffffffffffffffffffffff16611e64565b15611c3a578373ffffffffffffffffffffffffffffffffffffffff1663150b7a02611b0a6110ad565b8786866040518563ffffffff1660e01b8152600401611b2c9493929190613136565b6020604051808303816000875af1925050508015611b6857506040513d601f19601f82011682018060405250810190611b659190613197565b60015b611bea573d8060008114611b98576040519150601f19603f3d011682016040523d82523d6000602084013e611b9d565b606091505b506000815103611be2576040517f08c379a0000000000000000000000000000000000000000000000000000000008152600401611bd9906130c1565b60405180910390fd5b805181602001fd5b63150b7a0260e01b7bffffffffffffffffffffffffffffffffffffffffffffffffffffffff1916817bffffffffffffffffffffffffffffffffffffffffffffffffffffffff191614915050611c3f565b600190505b949350505050565b600073ffffffffffffffffffffffffffffffffffffffff168273ffffffffffffffffffffffffffffffffffffffff1603611cb6576040517f08c379a0000000000000000000000000000000000000000000000000000000008152600401611cad90613210565b60405180910390fd5b611cbf816119db565b15611cff576040517f08c379a0000000000000000000000000000000000000000000000000000000008152600401611cf69061327c565b60405180910390fd5b611d0d600083836001611ab4565b611d16816119db565b15611d56576040517f08c379a0000000000000000000000000000000000000000000000000000000008152600401611d4d9061327c565b60405180910390fd5b6001600360008473ffffffffffffffffffffffffffffffffffffffff1673ffffffffffffffffffffffffffffffffffffffff16815260200190815260200160002060008282540192505081905550816002600083815260200190815260200160002060006101000a81548173ffffffffffffffffffffffffffffffffffffffff021916908373ffffffffffffffffffffffffffffffffffffffff160217905550808273ffffffffffffffffffffffffffffffffffffffff16600073ffffffffffffffffffffffffffffffffffffffff167fddf252ad1be2c89b69c2b068fc378daa952ba7f163c4a11628f55a4df523b3ef60405160405180910390a4611e60600083836001611aba565b5050565b6000808273ffffffffffffffffffffffffffffffffffffffff163b119050919050565b6000604051905090565b600080fd5b600080fd5b60007fffffffff0000000000000000000000000000000000000000000000000000000082169050919050565b611ed081611e9b565b8114611edb57600080fd5b50565b600081359050611eed81611ec7565b92915050565b600060208284031215611f0957611f08611e91565b5b6000611f1784828501611ede565b91505092915050565b60008115159050919050565b611f3581611f20565b82525050565b6000602082019050611f506000830184611f2c565b92915050565b600081519050919050565b600082825260208201905092915050565b60005b83811015611f90578082015181840152602081019050611f75565b60008484015250505050565b6000601f19601f8301169050919050565b6000611fb882611f56565b611fc28185611f61565b9350611fd2818560208601611f72565b611fdb81611f9c565b840191505092915050565b600060208201905081810360008301526120008184611fad565b905092915050565b6000819050919050565b61201b81612008565b811461202657600080fd5b50565b60008135905061203881612012565b92915050565b60006020828403121561205457612053611e91565b5b600061206284828501612029565b91505092915050565b600073ffffffffffffffffffffffffffffffffffffffff82169050919050565b60006120968261206b565b9050919050565b6120a68161208b565b82525050565b60006020820190506120c1600083018461209d565b92915050565b6120d08161208b565b81146120db57600080fd5b50565b6000813590506120ed816120c7565b92915050565b6000806040838503121561210a57612109611e91565b5b6000612118858286016120de565b925050602061212985828601612029565b9150509250929050565b6000819050919050565b61214681612133565b811461215157600080fd5b50565b6000813590506121638161213d565b92915050565b60006020828403121561217f5761217e611e91565b5b600061218d84828501612154565b91505092915050565b6000806000606084860312156121af576121ae611e91565b5b60006121bd868287016120de565b93505060206121ce868287016120de565b92505060406121df86828701612029565b9150509250925092565b600080fd5b600080fd5b7f4e487b7100000000000000000000000000000000000000000000000000000000600052604160045260246000fd5b61222b82611f9c565b810181811067ffffffffffffffff8211171561224a576122496121f3565b5b80604052505050565b600061225d611e87565b90506122698282612222565b919050565b600067ffffffffffffffff821115612289576122886121f3565b5b61229282611f9c565b9050602081019050919050565b82818337600083830152505050565b60006122c16122bc8461226e565b612253565b9050828152602081018484840111156122dd576122dc6121ee565b5b6122e884828561229f565b509392505050565b600082601f830112612305576123046121e9565b5b81356123158482602086016122ae565b91505092915050565b60006020828403121561233457612333611e91565b5b600082013567ffffffffffffffff81111561235257612351611e96565b5b61235e848285016122f0565b91505092915050565b61237081612008565b82525050565b600060208201905061238b6000830184612367565b92915050565b6000602082840312156123a7576123a6611e91565b5b60006123b5848285016120de565b91505092915050565b6000819050919050565b60006123e36123de6123d98461206b565b6123be565b61206b565b9050919050565b60006123f5826123c8565b9050919050565b6000612407826123ea565b9050919050565b612417816123fc565b82525050565b6000602082019050612432600083018461240e565b92915050565b61244181611f20565b811461244c57600080fd5b50565b60008135905061245e81612438565b92915050565b6000806040838503121561247b5761247a611e91565b5b6000612489858286016120de565b925050602061249a8582860161244f565b9150509250929050565b600067ffffffffffffffff8211156124bf576124be6121f3565b5b6124c882611f9c565b9050602081019050919050565b60006124e86124e3846124a4565b612253565b905082815260208101848484011115612504576125036121ee565b5b61250f84828561229f565b509392505050565b600082601f83011261252c5761252b6121e9565b5b813561253c8482602086016124d5565b91505092915050565b6000806000806080858703121561255f5761255e611e91565b5b600061256d878288016120de565b945050602061257e878288016120de565b935050604061258f87828801612029565b925050606085013567ffffffffffffffff8111156125b0576125af611e96565b5b6125bc87828801612517565b91505092959194509250565b600080604083850312156125df576125de611e91565b5b60006125ed858286016120de565b92505060206125fe858286016120de565b9150509250929050565b7f4e487b7100000000000000000000000000000000000000000000000000000000600052602260045260246000fd5b6000600282049050600182168061264f57607f821691505b60208210810361266257612661612608565b5b50919050565b7f4552433732313a20617070726f76616c20746f2063757272656e74206f776e6560008201527f7200000000000000000000000000000000000000000000000000000000000000602082015250565b60006126c4602183611f61565b91506126cf82612668565b604082019050919050565b600060208201905081810360008301526126f3816126b7565b9050919050565b7f4552433732313a20617070726f76652063616c6c6572206973206e6f7420746f60008201527f6b656e206f776e6572206f7220617070726f76656420666f7220616c6c000000602082015250565b6000612756603d83611f61565b9150612761826126fa565b604082019050919050565b6000602082019050818103600083015261278581612749565b9050919050565b7f4e487b7100000000000000000000000000000000000000000000000000000000600052601160045260246000fd5b60006127c682612008565b91506127d183612008565b92508282019050808211156127e9576127e861278c565b5b92915050565b6127f881612133565b82525050565b600060208201905061281360008301846127ef565b92915050565b7f4552433732313a2063616c6c6572206973206e6f7420746f6b656e206f776e6560008201527f72206f7220617070726f76656400000000000000000000000000000000000000602082015250565b6000612875602d83611f61565b915061288082612819565b604082019050919050565b600060208201905081810360008301526128a481612868565b9050919050565b600081905092915050565b60006128c182611f56565b6128cb81856128ab565b93506128db818560208601611f72565b80840191505092915050565b60006128f382846128b6565b915081905092915050565b600061290a82856128b6565b915061291682846128b6565b91508190509392505050565b7f4552433732313a20696e76616c696420746f6b656e2049440000000000000000600082015250565b6000612958601883611f61565b915061296382612922565b602082019050919050565b600060208201905081810360008301526129878161294b565b9050919050565b7f4552433732313a2061646472657373207a65726f206973206e6f74206120766160008201527f6c6964206f776e65720000000000000000000000000000000000000000000000602082015250565b60006129ea602983611f61565b91506129f58261298e565b604082019050919050565b60006020820190508181036000830152612a19816129dd565b9050919050565b600069ffffffffffffffffffff82169050919050565b612a3f81612a20565b8114612a4a57600080fd5b50565b600081519050612a5c81612a36565b92915050565b600081519050612a718161213d565b92915050565b600081519050612a8681612012565b92915050565b600080600080600060a08688031215612aa857612aa7611e91565b5b6000612ab688828901612a4d565b9550506020612ac788828901612a62565b9450506040612ad888828901612a77565b9350506060612ae988828901612a77565b9250506080612afa88828901612a4d565b9150509295509295909350565b7f7b226e616d65223a220000000000000000000000000000000000000000000000600082015250565b6000612b3d6009836128ab565b9150612b4882612b07565b600982019050919050565b7f222c20226465736372697074696f6e223a22416e204e4654207468617420636860008201527f616e676573206261736564206f6e2074686520436861696e6c696e6b2046656560208201527f64222c2000000000000000000000000000000000000000000000000000000000604082015250565b6000612bd56044836128ab565b9150612be082612b53565b604482019050919050565b7f2261747472696275746573223a205b7b2274726169745f74797065223a20226360008201527f6f6f6c6e657373222c202276616c7565223a203130307d5d2c2022696d61676560208201527f223a220000000000000000000000000000000000000000000000000000000000604082015250565b6000612c6d6043836128ab565b9150612c7882612beb565b604382019050919050565b7f227d000000000000000000000000000000000000000000000000000000000000600082015250565b6000612cb96002836128ab565b9150612cc482612c83565b600282019050919050565b6000612cda82612b30565b9150612ce682856128b6565b9150612cf182612bc8565b9150612cfc82612c60565b9150612d0882846128b6565b9150612d1382612cac565b91508190509392505050565b7f4f776e61626c653a206e6577206f776e657220697320746865207a65726f206160008201527f6464726573730000000000000000000000000000000000000000000000000000602082015250565b6000612d7b602683611f61565b9150612d8682612d1f565b604082019050919050565b60006020820190508181036000830152612daa81612d6e565b9050919050565b7f4552433732313a207472616e736665722066726f6d20696e636f72726563742060008201527f6f776e6572000000000000000000000000000000000000000000000000000000602082015250565b6000612e0d602583611f61565b9150612e1882612db1565b604082019050919050565b60006020820190508181036000830152612e3c81612e00565b9050919050565b7f4552433732313a207472616e7366657220746f20746865207a65726f2061646460008201527f7265737300000000000000000000000000000000000000000000000000000000602082015250565b6000612e9f602483611f61565b9150612eaa82612e43565b604082019050919050565b60006020820190508181036000830152612ece81612e92565b9050919050565b7f4e487b7100000000000000000000000000000000000000000000000000000000600052601260045260246000fd5b6000612f0f82612008565b9150612f1a83612008565b925082612f2a57612f29612ed5565b5b828204905092915050565b6000612f4082612008565b9150612f4b83612008565b9250828202612f5981612008565b91508282048414831517612f7057612f6f61278c565b5b5092915050565b7f4f776e61626c653a2063616c6c6572206973206e6f7420746865206f776e6572600082015250565b6000612fad602083611f61565b9150612fb882612f77565b602082019050919050565b60006020820190508181036000830152612fdc81612fa0565b9050919050565b7f4552433732313a20617070726f766520746f2063616c6c657200000000000000600082015250565b6000613019601983611f61565b915061302482612fe3565b602082019050919050565b600060208201905081810360008301526130488161300c565b9050919050565b7f4552433732313a207472616e7366657220746f206e6f6e20455243373231526560008201527f63656976657220696d706c656d656e7465720000000000000000000000000000602082015250565b60006130ab603283611f61565b91506130b68261304f565b604082019050919050565b600060208201905081810360008301526130da8161309e565b9050919050565b600081519050919050565b600082825260208201905092915050565b6000613108826130e1565b61311281856130ec565b9350613122818560208601611f72565b61312b81611f9c565b840191505092915050565b600060808201905061314b600083018761209d565b613158602083018661209d565b6131656040830185612367565b818103606083015261317781846130fd565b905095945050505050565b60008151905061319181611ec7565b92915050565b6000602082840312156131ad576131ac611e91565b5b60006131bb84828501613182565b91505092915050565b7f4552433732313a206d696e7420746f20746865207a65726f2061646472657373600082015250565b60006131fa602083611f61565b9150613205826131c4565b602082019050919050565b60006020820190508181036000830152613229816131ed565b9050919050565b7f4552433732313a20746f6b656e20616c7265616479206d696e74656400000000600082015250565b6000613266601c83611f61565b915061327182613230565b602082019050919050565b6000602082019050818103600083015261329581613259565b905091905056fe4142434445464748494a4b4c4d4e4f505152535455565758595a6162636465666768696a6b6c6d6e6f707172737475767778797a303132333435363738392b2fa2646970667358221220aac0e84d72ceb5309837ad429c17866bd4bfe8d8c2f1426b1a5a06d2e8f9463464736f6c634300081400334142434445464748494a4b4c4d4e4f505152535455565758595a6162636465666768696a6b6c6d6e6f707172737475767778797a303132333435363738392b2f",
  "linkReferences": {},
  "deployedLinkReferences": {}
}